:040000006F10801CE1
:1000040000000000000000006F0080086F00202541
:1000140000000000000000000000000000000000DC
:1000240000000000000000000000000000000000CC
:100034006F004006000000006F00E00500000000B3
:100044006F0080056F0060056F0040056F0020059C
:100054006F0000056F00E0046F00C00400000000A2
:100064006F0060046F0040046F0020046F00000400
:100074006F00A0266F00C003000000006F00600343
:100084006F0040036F0020036F0000036F00E00265
:1000940001A001A001A001A001A001A001A001A054
:1000A40001A001A001A001A001A001A001A001A044
:1000B40001A001A001A001A001A001A0B717004068
:1000C400130770052380E704130780FA2380E704ED
:1000D4000F1000002396A70223800704371700405F
:1000E40083472705898BEDDF8357070537170040C2
:1000F40083472705898BEDFF371700408347270582
:10010400898BEDDF035507058280B71700409306FE
:1001140070052380D704130780FA2380E7040F10A7
:10012400000003C6B7041376F60DA385C704238025
:100134000704137605023DCA03C6A700118A1DE20F
:100144002380D7042380E7040F10000003C7A7000F
:10015400136747002385E7009307004B0100010064
:10016400FD17EDFFB7170040930670052380D704F1
:10017400130780FA2380E7040F1000007D8923947D
:10018400A70001000100010001002380070423806F
:10019400D7042380E7040F1000003727004093069C
:1001A4001005A303D78023800704828013760504F7
:1001B4006DDE03C6A700418A1DE22380D704238095
:1001C400E7040F10000003C7A70013670701238586
:1001D400E7009307007D01000100FD17EDFFB7174D
:1001E4000040930670052380D704130780FA238008
:1001F400E7040F1000007D89136505042394A7000C
:100204000100010001000100238007042380D704BA
:100214002380E7040F1000003727004093063005C1
:1002240049B74111814601468145114506C651220F
:10023400B7170040130770052380E704130780FAFB
:100244002380E7040F10000003C767041367170037
:100254002383E70423800704B2404101828081465E
:10026400014681451145B122B71700409306700538
:100274002380D704130780FA2380E7040F100000BB
:100284007D562396C7022380D7042380E7040F10EA
:10029400000003C76704136717002383E704238060
:1002A400070401A0BD473305F50201007D1575FD66
:1002B4008280411122C426C206C6AA84014463175F
:1002C4009400B24022449244410182800504130503
:1002D400803E4204C13F4180DDB7B7170040130799
:1002E40000032388E702854723A2F18A73002030A4
:1002F400411106C69929FDBF2303048095472303B2
:10030400F4802302A480828083076480E3CE07FE06
:1003140023030480828083076480E3CE07FE0345C1
:100324004480828083076480E3CE07FE2302A48096
:100334008280411126C44AC24EC006C61377F50B0B
:10034400AD47AA892E8995446306F70019456D3790
:10035400653F8D444E854D37FD59FD146398340136
:10036400B240A244124982494101828013550901D5
:100374001375F50F453F2209CDB7011126CC06CEE2
:10038400B704080051371545853F713769372AC6C8
:10039400A53F32459377150089EB13651500137556
:1003A400F50FF240E24405618280FD14E9FC014549
:1003B400CDBF397126DC4ADA4ED852D656D45AD239
:1003C4005ED062CEB7E700E006DE66CC6ACA41477B
:1003D40083AB070422C6B8C37D5703AB070083AAC7
:1003E400470023A0E71823A2E718B7170040130714
:1003F40070052380E704130780FA2380E70483C78A
:100404004704130C75FFB684E207137CFC0F854682
:100414002A8A2E89B28937240040E187015763FA7A
:1004240086016308D5008946130700026313D500CB
:100434000157D98F93F7F70F371D00402302FD04AE
:1004440011472303E4801305F00F7D35894C6D3D7E
:1004540063EB8C11B70707003E993787070079557E
:10046400637EE902B3079900636AF702A947631C34
:10047400FA0689E48144493D26850DA0CA850945CB
:100484004D3D850903C5F9FFFD140509613D81C48E
:100494009377F90FFDF7D53569FD7D55B717004002
:1004A400130770052380E704130780FA2380E70409
:1004B40003C74704418B2382E704B7E700E023A086
:1004C4007705F25023A0671123A25711E254324456
:1004D4005259C259325AA25A125B825B724CE24C94
:1004E400524D21618280A5476314FA0685699307FA
:1004F400F00FB3869700B374F900B69493C7F7FF6F
:10050400FD8C33F92701416A056C9387F9FFB3F732
:10051400270199E363FC340193D94900C147E3E619
:1005240037FF89BF8567C169FD17E1B71305800DE2
:1005340063884901130500026384890113051008C7
:10054400CA85C53B1D3D31D94E99B3843441D9B7D1
:10055400CA852D45F93BCE94E38E99F08509653B18
:10056400A38FA9FED5BF9307FAFF93F7F70F63ECA8
:10057400FC0803475D04B70708001377070219E373
:10058400B78707007955E37BF9F033079900E3E770
:10059400E7F089476310FA048980554AE38C04EC38
:1005A400CA8509457933910903A7C9FF91472320D7
:1005B400E48003076480E34E07FE23034481FD17B0
:1005C400EDFBFD14110981C49377F90FE9FF75332D
:1005D40071F5E1B58547E307FAF4CA852D45913BEA
:1005E4001389F4FFE38804E83D339377390091EBF2
:1005F4008326048003A7090093874900E39DE6E668
:10060400BE89CA84F1BFB5476316FA001305900B7F
:10061400E5318DB5B1471305B00AE30BFAFE9947EE
:10062400631EFA02CA852D45293381440D4C214AA3
:10063400DD31639684018327048023A0F9008504B7
:10064400E39844FF832704801317290163550700A7
:100654002392F90005B523A2F90029BD9D4763192A
:10066400FA0281451305B004E931BD4423A0090011
:1006740023A209007D59453193F77400CE9703C72F
:100684000700FD14398D2380A700E39624FFDDB312
:10069400A1476312FA04D5318144630D09008D47E3
:1006A4009304C0036308F9009304000563049901EB
:1006B400930440041375C507E30E95DA19452D39E3
:1006C400A131054515392685B1390945A139753159
:1006D400E31205DAD9B391476319FA0013056006EA
:1006E40021391D311305900925B7E3050AD8F154C2
:1006F40059B309CDB7170040130770052380E704E9
:10070400130780FA2380E7042396A702828019C185
:10071400814799E982803387F500834607003307D0
:10072400F50085072300D700E397C7FEE5B719C195
:10073400FD5781E98280910503A7C5FF1105232E8A
:10074400E5FE7D16E319F6FEF5B7797122D4173468
:1007540000001304249A1C4006D626D24AD04ECE5A
:1007640091C782979737000023A607985C4089CBEE
:1007740003D5C18DBD3F5C40829703D5E18D953F84
:100784001C40639907189737000083C7B7A8858B67
:1007940095C797370000A38F07A6173700000347B4
:1007A40097A7914763FCE700792B9737000083C72D
:1007B40097A6F9178A07A2979C4382979737000058
:1007C40083C707AA918B89C7971001E0E780400788
:1007D4001C4491C382979387818D984317360000F8
:1007E4000346168F3E89973400009384648E9737AE
:1007F400000083C7E78D93961700BA9683D6060048
:10080400638006109737000083C7878C63F2C7089C
:1008140086073E97835507002310070003D5C18D33
:100824002EC62392018EF1359387018F9C43173591
:1008340000000345E58913172500BA979C43B24588
:100844008297AA8903D5E18D6D359737000083C758
:100854002788139717008327090003D5418E134572
:10086400F5FFBA9703D7070033753501598D2390E7
:10087400A70083C70400850793F7F70F1737000015
:100884002308F784173700000347978463E6E700DB
:1008940097370000238E07821C40ADEF9387818E2B
:1008A40098433E8425CB9737000083C7179791CB95
:1008B4009737000083C7379689E7971001E0E780F0
:1008C400E0A81C4082972A8431C59C48AA97173710
:1008D40000002327F7809387C18E9C4385CF03D5DF
:1008E400C18D013D228597F0FFDFE780C07F225450
:1008F400B25092540259F24903D5E18D4561D5BBFA
:10090400850793F7F70F972600002383F67CE3E02F
:10091400C7EECDBDB250225492540259F2494561FA
:1009240082809167B7C600409387373023A6F620AC
:100934000F1000009727000093878779884F9387CB
:10094400819D9C43316713073730F053B70710007C
:10095400FD17918F99833A0523A6E6205D8D828049
:100964004111B7170040985F3AC6945F3247E39C41
:10097400E6FE324541018280411106C6D5379726ED
:10098400000083C66672858AB1C693073033330785
:10099400F502B337F5023983CA07D98F1727000048
:1009A40013070773584B01456303F7023385E74088
:1009B400636BF70037653D0889C637856F081305F3
:1009C4000590198D3E9517270000232DF770B2402E
:1009D40041018280E5473307F502B337F5022583E9
:1009E400DE0765BF0327C50F8346B50097370000B0
:1009F400938707829C4F58439386160295829043AF
:100A0400FD1693F6F60F10C3D04350C3904710C79A
:100A1400D04750C7904B10CBD04B50CB904F10CFFA
:100A2400D04F50CF91C61307070293870702C1BF67
:100A340082808347E50193F7E70FF1EF2A870345A7
:100A4400F50171E9034607018346870009CA834516
:100A5400A7029727000083C7376563E7F50093F77C
:100A64000601C5CF814709CA834787150346771511
:100A7400C18AA207D18F81CA8346B7150347C71518
:100A84002207558FBA97D1CB173700001307C783B6
:100A94003847411122C406C67D548326070863F3F0
:100AA40086003684184375FB172700000347C75F89
:100AB40093168701E18663D906029387C71395834A
:100AC400172700000347E75EBA9763D006041D8C1E
:100AD4009387418F9C4382973335A400B2402244CC
:100AE4001345150041018280058B9387C71209CBFA
:100AF4008A079387F7031305D007B3D7A702C9B7AB
:100B04008607FD071305D003CDBFE372F4FC370558
:100B1400C0A82A946DBF014582808280411122C4FD
:100B24001384819C18404AC006C61C5F26C21389E0
:100B3400419C9983858BC1C31C5F972400009384D7
:100B4400246D93F7F7F91CDF9727000083C7476CE0
:100B540093F707048DC39387418F9C43829797270C
:100B6400000023AFA76A83C7040093F7F70B172786
:100B74000000230FF768854717270000A30CF768C8
:100B840083C7440093F7070481EF9387819D9C43B7
:100B9400D844B8D3930700FC17270000230CF7664A
:100BA4008387640063D90700832709009C431727C0
:100BB40000002302F76618401C5F8583858BC9CB30
:100BC400F5571CDF010001000100010001000100D4
:100BD4000100010001000100010001000100010009
:100BE40001000100010001000100010001000100F9
:100BF40001000100010001000100010001000100E9
:100C040001000100010001000100010001000100D8
:100C140001000100010001000100010001000100C8
:100C240001000100010001000100010001000100B8
:100C340001000100010001000100010001000100A8
:100C4400010001009387819D9C4313075004B8CB96
:100C540018401C5F9183858B89CFBD571CDF938718
:100C6400819D9C4323A8070485471727000023037D
:100C7400F75A83270900D8430583058B19C7D8433E
:100C8400759BD8C3D843799BD8C3B24022449244BD
:100C9400024941018280397106DE16DC1ADA1ED857
:100CA4002AD62ED432D236D03ACE3ECC42CA46C808
:100CB40072C676C47AC27EC09535F250E25252535F
:100CC400C2533255A255125682567247E2475248D1
:100CD400C248324EA24E124F824F2161730020301F
:100CE4009387819D94431727000013076752BC52D2
:100CF40089CF83472700858B89EB83473700858B12
:100D0400FDD79727000023870750828037C700400C
:100D14001306C00393062003972500009385454FCF
:100D240083278720C18393F7F7036369F60083273A
:100D34008720C18393F7F70363E6F60083C7450072
:100D4400858BF9DF82809387819D94431727000068
:100D54001307074CBC5289CB83470700858B91CB83
:100D6400972700002388074A97270000A384074A8F
:100D7400828083471700858BF1DFDDB79387819DE0
:100D8400904337C70040C145E54683278720C18388
:100D940093F7F70363FBF50083278720C18393F759
:100DA400F70363E4F6003C52EDF382801387819CE1
:100DB4001843AA87185F1583058B25EF0345150093
:100DC40015051377C51F19C6B386E70083C6260029
:100DD4002300D60095C59726000083C6C64393F624
:100DE40006040945A1CAB386E70083C63600054652
:100DF40093F5F6066390C504E206E18663CC060229
:100E04003385E7008347150003470500A20793F7DE
:100E14000770D98F1397070141839376074099C6CA
:100E2400136707802398E19C014582802398F19CF5
:100E3400E5BF054582809386819D8C423685972641
:100E440000009386E63C984593170701C183137805
:100E540017203E86630408041377072079C303C769
:100E6400260013671700172800002304E83A130725
:100E74000019B8D1130700F897250000238CE53832
:100E84001387819C0C4337080010D855719B136756
:100E94002700D8D598413367070198C113772610E6
:100EA40005C31376061059CE03C70600136717004F
:100EB40017260000230EE63417270000231E0734EC
:100EC40083C6460093C7F7FFC207E206E186C183E3
:100ED400184163D106029396170163DE0606305368
:100EE4008D4663E9C6008546172600002304D632E2
:100EF4003453FDFE972600009386C6198386460167
:100F040063DD060093960701C18663DC0604705313
:100F1400894663E4C6007453FDFE1447F58F1CC76D
:100F2400828003C716001367170097250000A3816A
:100F3400E52E17270000230F072C17270000231D79
:100F4400072CA9BF03C73600136717001726000034
:100F5400A301E62C95B7854617260000230CD62A54
:100F640051BF54471396060163510602B706100099
:100F7400FD1674D39726000093868615944E850635
:100F8400172600002322D61649BFA166D58F71B754
:100F9400397106DE16DC1ADA1ED82AD62ED432D2DD
:100FA40036D03ACE3ECC42CA46C872C676C47AC25D
:100FB4007EC05135F250E2525253C2533255A255BB
:100FC400125682567247E2475248C248324EA24EE7
:100FD400124F824F2161730020301727000013073E
:100FE400E7248346B7019727000083C77727B6977E
:100FF40093F7F70FFD4663EAF6044C4B972600007F
:10100400A386F6229727000083C757220547331784
:10101400F70097260000A385F6246D8F1DEF972611
:10102400000083C63624B3F6D702130500028147B5
:1010340033D6F500058A13F8F70F09CE6399E60055
:1010440097270000A384071F828081177DB70507B7
:101054001377F70F8507E39DA7FC82809387419E52
:101064009843B75702009387279F8326070913964F
:1010740056006358060083260709139666006344E6
:101084000600FD17FDF3828051C9AA870145C9C92D
:101094008D07C207C183F19BC207C18313074003B5
:1010A400636BF702138741A708431387C1A6144350
:1010B4006396A602172700001307C7FD185B0145B6
:1010C40025C34111C20706C60545DD8D0297B2400E
:1010D400014541018280138701A7F9B703576500D1
:1010E40005EF035745006369F702B306F74021464D
:1010F4006370D6021041938687001D8FAA966117EC
:1011040090C22392E6002393060014C12312F50033
:101114002313B50021058280084159BF014582800F
:10112400828001CD938741A703A807009387C1A6B6
:101134008C430147C28763E3B70082809443636FA3
:10114400F50663EDA60613868700E368C5FE03D59E
:101154006700216605066317C50003C68198050666
:101164002384C1982393070063840703138601A78C
:101174001042630FF6000356670019EA83D747004D
:1011840014C383564700B697A1072312F700BA8702
:101194009843E304B7FA938601A79442E30FD7F880
:1011A40083566700D9FA83D647000356470018438D
:1011B400A106B2962392D70098C382803E87B68751
:0411C4009DBF0000CB
:1011C800974100209381013C17710020130101E32E
:1011D80013054000972500209385456217360020A7
:1011E8001306067E63FAC5008322050023A0550076
:1011F80011059105E3EAC5FE17C501001305C5529F
:10120800973500209385C57B1386818663FAC500D0
:101218008322050023A0550011059105E3EAC5FEC8
:101228001385818697650020938545946377B5007B
:10123800232005001105E36DB5FE9302800873A015
:101248000230972200209382625B93E2120073902F
:10125800523037170040930770052300F7049307AF
:1012680080FA2300F7040F1000003C47B70600FA85
:10127800E116F58FB70600069506D58F3CC797226D
:1012880000009382C2E973901234730020303D430A
:101298002A876373C3029377F700BDEFADE59376B2
:1012A80006FF3D8ABA960CC34CC30CC74CC741070E
:1012B800E36BD7FE11E28280B306C3408A06970229
:1012C800000096966780A6002307B700A306B7001C
:1012D8002306B700A305B7002305B700A304B7008A
:1012E8002304B700A303B7002303B700A302B70082
:1012F8002302B700A301B7002301B700A300B7007A
:101308002300B700828093F5F50F93968500D58D5D
:1013180093960501D58D61B7939627009702000033
:1013280096968682E78086FA9680C1171D8F3E962C
:10133800E374C3F8A5B7B717004003C77705137759
:10134800E70FA38BE704130700F8A38DE7043D47D5
:10135800238CE70413075003A38CE7048280B71794
:10136800004003D587005D715ED64205418186C67F
:10137800A2C4A6C2CAC04EDE52DC56DA5AD862D41B
:1013880066D26AD06ECE9377050C13070008814B9E
:10139800638EE718130700046392E716B7240D8FCE
:1013A8007D8993840480B3D4A4029167938707E866
:1013B800BE94A167938707D0B3D4F402EFA031514C
:1013C80097C70100938787C29043D443EFA0B10425
:1013D800EFB0B1172A8B939C040103D9818693DC63
:1013E8000C0163150900056913090980B717004046
:1013F800130770052380E704130780FA2380E704A6
:101408000F1000000547371A0040939D0401096C2E
:1014180085662389E704D14A814E8145130D0A0464
:1014280013087005130680FA894893DD0D01130C23
:101438000C712943FD1623000D012300CD000F1068
:10144800000023162A0323000D0083472A05898BF1
:10145800EDDF83570A0583472A05898BEDFF83470C
:101468002A05898BEDDF83570A0523942187C20754
:10147800C183338597419319050193D9094163863F
:1014880009163387B9026350070E850EC20E93DE24
:101498000E0163EAD80D63DB050A3305B0409315E6
:1014A8000501C185C204C18063D9350BB717004057
:1014B800130770052380E704130780FA2380E704E5
:1014C8000F1000000965130505713385A5022396E1
:1014D8007703238007043345950242054181B640CE
:1014E800264496440649F259625AD25A425BB25B84
:1014F800225C925C025DF24D61618280B1E3B77457
:1015080089097D8993840480B3C4A4029167938771
:1015180007E8BE94A167938707D0B3C4F402EFA08D
:10152800113B97C701009387E7AC79BD97C70100C6
:10153800938747AB856403AB07009384843861BD08
:10154800130B0000954441BD3A89F5B5B387FC40BB
:101558009399070193D90941B1B709651305057135
:101568003385A9028DBF3385B74163E4FC00338519
:10157800FD40330585033344B503634583001315E4
:101588000401A9BF4E8536C642C432C2EFB0A1627B
:10159800DA85EFB0C12DEFB08156931E050193DEB9
:1015A8000E41B307D941C207C183056E3E87124673
:1015B800224889482943B24663E3C7013687420770
:1015C8004183631A27011307190063443001130785
:1015D800F9FF42074183FD1A93FAFA0FCA8BCE85A9
:1015E800E3940AF62394E18659BF0145CDBDB717A8
:1015F800004003D587005D7186C642054181A2C4BB
:10160800A6C2CAC04EDE52DC56DA5AD85ED662D4BA
:1016180066D26AD06ECE02C69377050C130700080F
:10162800638FE714130700046393E712B7240D8F41
:101638007D8993840480B3D4A4029167938707E8D3
:10164800BE94A167938707D0B3D4F402EFA03128E2
:1016580097C70100938787999043D443EFA0A15B74
:10166800EFB0A16E2A89939A040103DBA18693DA6D
:101678000A0163150B00056B130B0B80B7170040AD
:10168800130770052380E704130780FA2380E70413
:101698000F1000000547939B04018969056A238997
:1016A800E704D14D014D814C93DB0B0193890971FE
:1016B8007D1A5A8597200020E7800020330C554179
:1016C800420C135C0C412395618763030C16B30726
:1016D8009C0363D3070E050D420D135D0D01894769
:1016E80063ECA70D63DD0C0A33059041931C0501DB
:1016F80093DC0C41C204C18063DA8C0BB71700403D
:10170800130770052380E704130780FA2380E70492
:101718000F1000000965130505713385AC023247C7
:101728002396E70223800704334595024205418149
:10173800B640264496440649F259625AD25A425B48
:10174800B25B225C925C025DF24D61618280B1E322
:10175800B77489097D8993840480B3C4A40291670E
:10176800938707E8BE94A167938707D0B3C4F402B0
:10177800EFA0F11597C701009387C787F1BD97C7F9
:10178800010093872786856403A90700938484381A
:10179800D9BD130900009544F9B53E8B19BF3385AF
:1017A800AA40131C0501135C0C41A9B70965130570
:1017B80005713305AC028DBF63FEAA003305754180
:1017C80033053503A9473344750363C887001315E8
:1017D8000401B1BF3385AB40E5B76285EFB0A13DE9
:1017E800CA85EFB0C108EFB08131131D0501135D43
:1017F8000D413307AB41420741838565BA8763636F
:10180800B700D287C207C183639A670193071B0099
:10181800634480019307FBFFC207C183FD1D93FD4D
:10182800FD0F5AC6E28CE39A0DF62395F18645B76B
:101838000145FDBD41112A83014E930E407E130FD1
:101848000019930F400663ED6E0A930800191303FD
:101858004006B3781503854E0D4FA14F33736502CB
:101868000D891335150063E7BE0C1308F6FF79469A
:1018780072984208135808013307C70213D6170095
:10188800BE0732976146B3F6C60213068070B38668
:10189800C6023697A166F58F42075D8FB7170040DD
:1018A80083C6F70293F60608A307D1000346F100A2
:1018B80083C6F70293F60608E394C6FE8346F10052
:1018C80093F6F60FF1DE930670052380D70493068E
:1018D80080FA2380D7040F10000023AA070383C6C9
:1018E800170393E60608A388D702D8DB03C71703B4
:1018F80013670704A388E702238007044101828055
:101908007D133368E3039308E016630E0800336819
:10191800F3039308D016630808009378330093B84C
:1019280018009388D81633081E01131E0801135E89
:101938000E0111BF6393E50305486386080001485B
:10194800630303002A8871087298FD15131E0801A5
:10195800C205135E0E01C18139B713F8150063F48F
:10196800BF007908D5B713381800E5BF914763EE73
:10197800B70217B70100130767688A05BA959C4133
:10198800BA978287B717004003A7470B1345F5FF9F
:10199800698F23AAE70A03A7070B698F23A8E70A19
:1019A80003A7070A798D23A0A70A8280B7170040EA
:1019B80083A6470B1347F5FFF98E23AAD70A83A6F8
:1019C800070B558D23A8A70A83A6070A758F23A09E
:1019D800E70A8280B717004003A7470B498F23AA5D
:1019E800E70A03A7070B1345F5FF45BFB7170040E4
:1019F80083A6470B1347F5FF758F23AAE70A03A7AA
:101A0800070A598D4DB7B717004003A7470B498FF1
:101A1800EDB7B7F700E0C8439C478280938781877A
:101A28009C43411106C691C382979387C1879C4303
:101A380091C38297173700200357E7349307C012E2
:101A480063F7E70403D541809306B01263E4A60464
:101A58009386418703A3060063070300B24013057A
:101A6800C012410102830507098F3385A740E54766
:101A78003305F5024207418309839307F7FF3E9533
:101A88003345E5021375F50FB24041018280130515
:101A98004006DDBF0145CDBF03A84500411126C260
:101AA80006C622C48347180003480800A944A207B1
:101AB800B3E70701C2070D68C1871308289063962A
:101AC800070385473284EF60E024AA8419ED9387E1
:101AD80001879C4399CB0345140003470400220562
:101AE800598D1335150005058297B2402244268585
:101AF8009244410182802D452DEFD841411122C4E5
:101B080026C206C68347170003470700B684A20704
:101B1800D98F0D67930697A13284639CD702FD3D48
:101B28009737002083C707266376F500973700208C
:101B3800238AA72485472390F4009737002083C77A
:101B480067242300F4000145B24022449244410135
:101B58008280130787902945E398E7FECC4589479B
:101B68002390F4000946228597200020E780E03979
:101B7800D9BF828083474500858BBDC7011122CC20
:101B88002A8403552500938581A806CEEF6040136B
:101B9800058939C503552400014781460546ED45A9
:101BA800EF50504C2AC60DCD97370020938747E158
:101BB80083D7A70201462C002314F100854723157B
:101BC800F1009737002083C7E71B2300F500035572
:101BD8002400EF60D06A09C5ED452800EF50706019
:101BE800F24062440561828082804165411193859B
:101BF80081A87D1506C6EF70B059B240973600200F
:101C0800938606E14146954517350020130545DBC7
:101C180041016F70304C23A8A1868280411122C4F3
:101C280006C6854709446313F50283470600014445
:101C38002386F186173700200347C7146378F70017
:101C480017050000130545F3EFA0E0072285B24011
:101C5800224441018280411106C6C93397370020CA
:101C680083C74712637CF50097370020238CA710A1
:101C780017050000130545F0EFA0E004B240014548
:101C88004101828041677917630CE502411122C442
:101C980006C685472A84639AF50022852244B24005
:101CA800938581A841016F70B04E89476396F5000E
:101CB8008545EF90D07B75D1B240224441018280A6
:101CC8008280CC41411106C6328503C6150083C502
:101CD800050022064D8E42068D654186138875A241
:101CE800630C060F6348C804138845A26306060BF5
:101CF800634AC800938535A26309B6062390060097
:101D0800294679A0138855A26308060B938565A216
:101D1800E316B6FEC1451D4663ECE5064546198E39
:101D280063F3C7003E862390C60097B501009385EC
:101D3800252F89A8138895A26300060F634E060B0A
:101D48001388A5A2630A060F938505A5E318B6FABA
:101D580099451D4663EEE502198E63F3C7003E867A
:101D68002390C6009385018131A89D451D4663E1F6
:101D7800E5022146198E63F3C7003E862390C6000C
:101D880093850188BA9597200020E78000180146BE
:101D9800B240328541018280AD451D46E3EAE5FE49
:101DA8003146198E63F3C7003E862390C60097B567
:101DB80001009385A52AF9B7B1451D46E3EAE5FC7C
:101DC8003546198E63F3C7003E862390C60097B543
:101DD80001009385A5297DB7C1451D46E3EAE5FACB
:101DE8004546198E63F3C7003E862390C60097B513
:101DF80001009385252479B7C1451D46E3EAE5F836
:101E08004546198E63F3C7003E862390C60097B5F2
:101E180001009385A526BDB7C1451D46E3EAE5F651
:101E28004546198E63F3C7003E862390C60097B5D2
:101E3800010093856521B9B7B5451D46E3EAE5F488
:101E48003946198E63F3C7003E862390C60097B5BE
:101E580001009385E51B3DB797360020938606CF92
:101E68004146CD4517350020130545BB6F709026B8
:101E780005E1B28741112E8613850188BE8506C605
:101E880097200020E7806008B24001454101828028
:101E98000945828003A34500411126C206C622C413
:101EA80083471300034303002E88A207B3E76700A4
:101EB8002D631303F3BCB284638967044163491338
:101EC8006388670A8D689388289029446399170363
:101ED800DC45138881A9639507078547EF50906310
:101EE8002A8411ED03C5140003C7040093874189B0
:101EF8002205598D9C4313351500050582972285C7
:101F0800B24022449244410182802D446DFB8547B2
:101F18003544E396F6FED845834706002300F700CC
:101F280009476389E7000D476386E7001304000843
:101F3800E397D7FC938741899C430D45829729A055
:101F4800138881AA63840701014455BF8547EF5070
:101F5800705C2A844DF503C5140003C704009387F9
:101F680041892205598D133515009C43150579B70C
:101F78002D4451F791473544E393F6F80325C800FB
:101F88001146A685EFA0717A83C7040003C7140021
:101F9800A207D98F239FF18083C7240003C7340089
:101FA800A207D98F239EF180938741899C43C9DF7B
:101FB800114569B7C84103481500034505002208C3
:101FC8003368A8002D450DE70D67130787A363083D
:101FD800E80041674917630EE80029458280854774
:101FE8002390F600DC4583C707002300F60001456F
:101FF80082800D474545E37DF7FE91472390F60023
:1020080083D7E1812300F600A183A300F60083D7DC
:10201800C1812301F600A183A301F600C9BF4111C4
:1020280026C2C16422C4938581A92A841385F4FF3A
:1020380006C6EF70F015938581AA1385F4FF05880D
:10204800EF7010150DC02244B2409244973600201C
:10205800938686BD4146B545173500201305C5AFA3
:1020680041016F703007B24022449244014541015A
:10207800828023AAA188828085476309F500894761
:102088006317F500834706002388F18881473E855A
:10209800828089476302F50463E9A7000547814701
:1020A8006303E50089473E8582808D47630CF5020E
:1020B8009147E319F5FE8147FDD583D7E181238058
:1020C800F500A183A380F50083D7C1812381F500A2
:1020D800A183A381F50029A083C701892380F50086
:1020E8008147D1B783C78188D5BF411122C42E84C7
:1020F800938581A926C206C6AA84EF50703C05893B
:1021080015C197370020938727A583D7A702A285F3
:10211800B2402310F400224426859244014641012E
:102128006F60F015B24022449244494541018280D3
:10213800411122C42E84938581AA26C206C6AA8488
:10214800EF501038058915C1973700209387C7A02D
:1021580083D7A70BA285B2402310F400224426851A
:102168009244014641016F609011B240224492446A
:10217800494541018280C167F9176301F50441119E
:1021880022C406C685472A84639FF5002285938565
:1021980081A9EF70E07F22852244B240938581AA0D
:1021A80041016F70E07E89476396F5008545EF90A1
:1021B800102C69DDB240224441018280828019C519
:1021C8009387E18183D707002310F50099C593878A
:1021D800C18183D707002390F500828041118D4586
:1021E800096506C622C426C2371400404AC0EFF06B
:1021F800EFF78327840A09699164B3E72701232449
:10220800F40A8326840A1145C58E2324D40A97200C
:102218000020E780E0880327C40A114533672701B7
:102228002326E40A97200020E78080878327C40AB2
:10223800B2400249C58F2326F40A22449244410140
:10224800828041118D45096506C622C426C237140D
:1022580000404AC0EFF08FF18327C40A11698964EE
:10226800B3E727012326F40A8326C40A1145C58E3D
:102278002326D40A97200020E78080820327840A37
:10228800B2401145336727012324E40A8327840ACF
:102298000249C58F2324F40A2244924441011713AA
:1022A80000206700E37F41118545096506C6EFF008
:1022B800EFEB054597100020E780807E3717004038
:1022C8008327870A91660545D58F2324F70A971037
:1022D8000020E780E07C9307B00F37170040832683
:1022E800470A13962601634A06008327C70A9166A0
:1022F8000145D58F2326F70A39A0FD1793F7F70F65
:10230800F9FF81370545B24041018280411122C45D
:10231800371400408327C40A26C2916406C6C58FB5
:102328002326F40A8D450965EFF04FE48327C40A94
:1023380009670945D98F2326F40A97100020E780FA
:1023480020768327840A0945C58F2324F40A971029
:102358000020E780E0748327C40AB240C58F232693
:10236800F40A2244924441018280411122C4371464
:1023780000408327C40A26C2916406C6C58F232657
:10238800F40A8D450965EFF06FDE8327840A096733
:102398000945D98F2324F40A97100020E78040705C
:1023A8008327840A0945C58F2324F40A971000203F
:1023B800E780006F8327C40AB240C58F2326F40A3A
:1023C800224492444101828001114AC88D452A89DC
:1023D800096522CC26CA4EC652C406CEEFF00FD9E4
:1023E800371700408327C70A9166A144D58F232653
:1023F800F70A37140040096A916993178901E18740
:1024080063D207068327840AB3E747012324F40A23
:10241800094597100020E780A0688327840A0945AA
:10242800FD14B3E737012324F40A97100020E7804E
:1024380020678327C40A06090945B3E7370123261D
:10244800F40A93F4F40F1379F90F97100020E7803A
:102458002065C5F4F2406244D2444249B249224A56
:10246800056182808327C40AB3E747012326F40A5B
:1024780045B7011152C485452A8A096522CC26CA66
:102488004AC84EC606CEA144EFF04FCE01443719D4
:10249800004091698327C90A09450604B3E7370153
:1024A8002326F90A97100020E780805F8327890A8E
:1024B8001374F40FB3E737012324F90A8327490A71
:1024C800139727016355070005041374F40FFD14CF
:1024D800054593F4F40F97100020E780605CDDF861
:1024E800631C0A0059352285F2406244D2444249AD
:1024F800B249224A05618280113DF5B7011106CE25
:1025080022CC2A84E1391305C0067D3D693B137549
:10251800F40F5D3D493BD9311305D006753561335C
:102528000145813F2AC6313BF2406244324505618C
:102538008280011106CE22CC2EC6C937B2452A8424
:1025480022042E85653F418DF24062444205418157
:1025580005618280797122D426D24AD04ECE52CCDF
:1025680056CA06D61379F500138481AB854493893E
:10257800118A138A018A914A631009022254B250BF
:1025880092540259F249624AD24A03C5218A014645
:10259800854545616F102044B3779900A9C78347E3
:1025A8000A0003C7090023000400E58FD98FA38020
:1025B800F18A2312D4002301C400A300B40099E1D6
:1025C8002300540136C632C42EC2EF10A02D834713
:1025D8000400B2462246924593E7270008C4230028
:1025E800F40033499900860493F4F40F310469B771
:1025F800937715009386018A9DCB85476391F502F1
:10260800371600408327860C79777D17F98F2324A6
:10261800F60C83C706005D8D2380A18A8280371758
:1026280000408327870C0966D18F2324F70CF5F126
:1026380083C706001345F5FF7D8DF9BF011122CC34
:1026480026CA4AC84EC652C406CEAE899374F5004F
:10265800138981AB0544214A89E8F2406244D24497
:102668004249B249224A05618280B3F7840089CF82
:10267800CE85639649018345090093C515002285D7
:102688002300B900A18CAD3706041374F40F310987
:10269800E1B7AA8711C909CA81CA9307300663E35B
:1026A800C7004DBD854559BF81453E85EDBFA14752
:1026B80063EFB70297B601009386869D13972500AE
:1026C80036971C43411106C6B69782879306803E0B
:1026D800154685457D3FB2400145410182809306FC
:1026E800803E154693052003F5B7893FEDB70145B0
:1026F8008280371700408327070C4111896606C678
:10270800D58F2320F70C81453D450D3F856693867F
:1027180006FA7946A9450545353DB240238401AE00
:102728004101828083C781AE6393071679714ECECB
:10273800C16922D426D24AD052CC56CA5AC85EC6DB
:1027480062C406D666C26AC0138481AB014C3D4997
:102758008544138A118A930A4006FD19130B400613
:10276800930BF00FB3F72401E1C783470400898B6B
:10277800D5CFEF1020131C442A8D6366F50E8346CF
:102788000400834C240093F71600BDCB33079B410C
:10279800F99A81452685937CF70F2300D400893D5B
:1027A800034604009377460099EF83461400638C30
:1027B8007601FD1693F6F60FA300D40089E61346BA
:1027C80026002300C40083470400898BB1C3035744
:1027D8004400330797033357570393170701337799
:1027E80037016A97C18318C463030C08A1C33E87E5
:1027F8006373FC006287131C0701135C0C013DA086
:1028080093E61600854526852300D400D53365BF99
:1028180083450A002685E58DB335B000493D034759
:102828000A0093C7F4FFF98FA380F18A33C9240102
:10283800860493F4F40F3104E31609F2630B0C02D7
:102848002254B25092540259F249624AD24A424B37
:10285800B24B924C024D6286224C03C5218A8545B3
:1028680045616F104017898FC207C183B5BF3E8C81
:1028780075BFB250225492540259F249624AD24A60
:10288800424BB24B224C924C024D45618280828071
:10289800411106C6EFE0BFACBD4763F4A700EFE007
:1028A8001FACEFE0DFD4BD4763F4A700EFE03FD4EF
:1028B800B24083D5A18603D5818641016F10C03906
:1028C800411193962500AA852D4506C6971000202C
:1028D800E780E02DB240014541018280411126C2C6
:1028E8009394250022C44AC02A843289A686AA85E0
:1028F8000146254506C697100020E780402BA6868E
:102908004A86A285294597100020E780402AB240D0
:10291800224492440249014541018280011122CC9E
:1029280006CE3714004026CA4AC84EC652C483444D
:102938007405034AB4058349840503499405EFE007
:102948009F9F8347A40593F4F40F137AFA0F93E734
:102958001700230DF40493F9F90F1379F90FB7173A
:10296800004003C7A705058B6DFF03D5C705A38DD9
:102978004705238C3705A38C2705A38B9704F240C2
:102988006244D2444249B249224A056182804111D7
:102998009397050122C406C6C1872E8463DA07000F
:1029A800EF00903119C1EF00902A2165218D39A0DF
:1029B80093F7150081CBBD3313451400B240224470
:1029C800410182809397250163D00702EF20A13946
:1029D800C13537F60200130606E0896503C5218A6A
:1029E800EF00707F0965D9B7939715010145E3D7C3
:1029F80007FC13060064916503C5218AEF00B07DCA
:102A080011656DB71D71494697A501009385856AC3
:102A180017B501001305058686CEEF00D06211E1D7
:102A280001A037F700E0F9575CC7FD571CCB856656
:102A3800B7E700E023A0D7101306701010C3B843FF
:102A48004146B0C323A0D718B8C30F10000013061F
:102A5800C00381454808EF00F05897270020938766
:102A680027613ECA896793870780231CF100ED47D9
:102A7800A301F1029307A0102312F102D147230307
:102A8800F102A167938707E03ECE9707000093877E
:102A980067E3BEC497070000938787E4BEC68547EF
:102AA8002304F102B5472308F10297F7FFFF938744
:102AB80087F63EDAB7F5070097070000938747E6E1
:102AC8003EDE8146970700009387C7DC7000E1056A
:102AD8001945BEC097100020E780600D580881474F
:102AE800994670003E960346060085070507A30A27
:102AF800C700E398D7FED24791C70357810185677E
:102B08006373F70001A04808EF10C02A11C101A0A3
:102B1800F64025618280411117050000130565E71D
:102B280006C622C4EF1080251384218A2300A4003E
:102B38003128C136034504002244B24037F602006A
:102B4800130606E0896541016F00F068411122C44F
:102B580006C637140040930670052300D4041307F3
:102B680080FA2300E4040F1000008347F40293F76F
:102B7800A70FA307F4022300D4042300E4040F10D2
:102B880000008347F40293E72700A307F402093300
:102B98001305407E2300040481470147814605460A
:102BA8008545EFE03FC92244B240014541016F101D
:102BB800804D7D151375F50F954763E8A70C17A78A
:102BC8000100130767500A053A951C41011106CE0A
:102BD800BA9782878547C14503C5C18C2388F18A86
:102BE800EF00307645239387C18A9843914763194C
:102BF800F70213064006894503C5C18CEF00B05D96
:102C080005A07566C1451306064C03C5C18C23880B
:102C1800018AEF00505C894503C5C18CEF007072D2
:102C2800F240056182808547A388F18AC145EDB7E6
:102C3800A388018A83C7018BE5F775661306064CDE
:102C4800C1455DBF9305E1000D4523070100EFF085
:102C58004FC48347E10009476398E700B54531450C
:102C6800EFF03F8D4D236DBF0D47E39BE7FAEF0073
:102C7800E0797DB79305E1006800EFF04FD4835504
:102C8800E1000355C1001D2361BF8280011122CCE0
:102C980006CE11472A846318E50203C72500954725
:102CA800631DF70083D7A50013060064A14503C57B
:102CB800C18C2394F18AEF00105223A6818AF24036
:102CC8006244056182809387C18A9C436395E706C5
:102CD800756685471306064CC14503C5C18C230498
:102CE800F1002388018AEF00104F894503C5C18C84
:102CF800EF003065854503D5818AEFF0CFC785455C
:102D080003D5818AEFE01FF8930500020D45EF20F7
:102D18003039930500021145EF2090389D65938561
:102D280005530145EF20D037300085451305503055
:102D3800EF60713859B709476390E7048D47631D01
:102D4800F50283C7218B81C72389018ABDB7EF208C
:102D5800C06B93070002E312F5F6854793050064FC
:102D68000D452304F100EF20B033930500641145AD
:102D7800EF201033814575B78547E310F4F42C0034
:102D880013054030EF6071258347D1003000A1451D
:102D9800A307F1008347C10001452306010023076B
:102DA800F1008347B100A3050100A306F100EFF08D
:102DB8002F8C21B785476310F5029387C18A984302
:102DC80091476312F7021966130606DC914503C59D
:102DD800C18C6F00504089476317F500914503C5C2
:102DE800C18C6F001056828079719397050122D4A7
:102DF80006D626D24AD0C1872E8463D1070203C5DE
:102E0800C18CEF00606B19C1EF0060642165218DF2
:102E1800B2502254925402594561828093F71500AA
:102E280091CF17260020130626E39385418B03C50F
:102E3800C18CEF60217C13451400D9BF93F725009E
:102E4800638B07109387C18A984391476312F710E1
:102E5800014781460946ED4503D5818AEF40902018
:102E680023A0A18CAA841389C18B630C050CB545DA
:102E78003145EFF00FEC2393A182A52903D5618298
:102E880081292380A4002181A380A40083274900ED
:102E98008904CA859D8C93F4F40F03D5818A239FF6
:102EA800918AEFF08FA409C5ED454A85EF4070334C
:102EB80083C7118BD9C74800092B01478146214692
:102EC800ED4503D5818AEF40F01923A4A18CAA848B
:102ED8002DC903D56182ED2E97A70100938747205E
:102EE8008C432A896245EF909118EF907147924779
:102EF800420541812380F40092479385418CA18348
:102F0800A380F400A2472381F400A2472382A400EF
:102F180023832401A183218113598900A381F4000B
:102F2800A382A400A147A383240103D5818A239304
:102F3800F18CEFF0EF9F11C5ED451385418CEF4003
:102F4800502A13064006894503C5C18CEF00B028F6
:102F58001345240075BD93F7450085C79387C18A3B
:102F680098439147631CF700EFE0FFCE19661306FC
:102F780006DC914503C5C18CEF00F02513454400DC
:102F880041BD93F7850099CF83C7C18C13074006CD
:102F980081462146A14503D5818AEF60015F13452B
:102FA8008400BDB593F705010145E38307E683C7B0
:102FB800018B9DEB894503C5C18CEF009038914585
:102FC80003C5C18CEF00F03750008545130550301C
:102FD80023020100EF60310E371700408327C70A2C
:102FE80093E707202326F70A1345040115B50111B5
:102FF80017050000130585DF06CE22CC26CA1384E8
:10300800C18CEF00B05785442300A40070008545AB
:103018001305503023069100EF60F10917260020B0
:10302800130646C4C14513057030EF60D108172652
:103038000020130626C0A54513056030EF60B107D0
:10304800700091451305704023049100A305910079
:1030580002C6A304010023050100EF50B1023000AD
:10306800854513050040EF50F10113069100854591
:1030780013051040EF5011011306A10085451305F3
:103088002040EF5031001306B1008545130550402C
:10309800EF50417F89477000854509452306F100B7
:1030A800EFE09FFD99477000854505452306F1002F
:1030B800EFE0DFB67D55EF4040447D55EF60300AC4
:1030C8007D55EFE0DFF5EFE03FD9EFE01FB21726BF
:1030D80000201306E6B6D5450145EF402034170514
:1030E8000000130545ADEFE0DFF8170500001305F4
:1030F800A5CCEFE05FB2034504008545EF00407BB7
:103108000345040075661306064CC145EF00B00C74
:10311800F2406244D2440561828041111305800463
:1031280006C622C497000020E780E07D8D45130580
:103138000020EFE0BF83371400408327840A93E719
:1031480007202324F40AEFF0FF8BEFF0DF9CEF60F9
:10315800111D8327840A09678D45D98F2324F40A12
:103168000965EFE0BF808327840A11678D45D98FF1
:103178002324F40A1165EFE06FFF953D97100020B6
:10318800E780C09637073C0097270020938787AED3
:103198001307270398C317A701001307A7F51843B8
:1031A800239207002383070098C78280411122C415
:1031B80017240020130404AC2311B4002310A40026
:1031C80006C626C24AC0AE84EF90F11E97A701003A
:1031D800938787F28C43EF9081692A892685EF903F
:1031E800911D97A701009387A7EF8C43EF90E12BE0
:1031F800AA854A85EF90612B08C4B24022449244C4
:10320800024941018280972700209387A7A6054796
:103218002392A7002383E7008280411122C406C6B7
:1032280017270020034767A517240020130484A448
:103238009307000021C39727002083D7E7A31D8D9C
:10324800856713870780635FA7061D8DEF90B1160A
:10325800AA85EF80F16E97A701009387A7E88C43B2
:10326800EF90E16097A70100938707E88C43EF9000
:103278000160AA871395170097A70100938707E7AE
:103288008C430581EF90A15EAA85EF80716B0C4499
:10329800EF90E15D4C44EF90815D97A70100938723
:1032A80027E58C43EF906120930500002A84EF9076
:1032B800415363540500130400002285B2402244A0
:1032C8004101828013070080E352E5F83E95BDBFB7
:1032D800411106C6993797A70100938767E08C4389
:1032E800EF90E158EF90D107B2404205418141018A
:1032F8008280411126C206C622C44AC0AA845D2320
:103308009387018D9C432547B307F5406370F70603
:1033180023A8A18C2A842685093797340020938412
:1033280024552A89AA85C848EF90A14B6354050003
:1033380023AA24019737002083C7875495EF97A7BE
:1033480001009387A7DB8C434A85EF902141634FA7
:1033580005008547173700202304F75297370020C8
:1033680023AE87509737002023A60750B240224447
:10337800924402494101828097A70100938747D868
:103388008C434A85EF90E145E342A0FE9737002041
:103398002388074EDC441D8C9307703EE3F887FCB6
:1033A8009C408507173700202324F74C9C44A2979C
:1033B800173700202322F74C9307803E3354F4023A
:1033C8009737002023A8874A55B721C1411126C243
:1033D800973400209384C4497146A68522C406C642
:1033E8002A84EF909134884009CDEF903109AA855D
:1033F800C848EF90810B08CCB24022449244410166
:103408008280930700001CCCC5BF8280411122C472
:10341800173400201304C44571468145228506C629
:10342800EFD0FFE6412148C4B240224441018280E6
:1034380023AC05FE1C4191E7010001000CC182800C
:10344800BA8703A787FF6DFF23ACB7FE82801DC133
:103458008346E5FF1307F00F9147639EE60041118D
:1034680006C697100020E780804BB24081473E8512
:103478004101828095473E85828001E9014582802D
:103488000145B240224441018280411122C42A846C
:10349800210542059305D004418106C697100020F6
:1034A800E780403E71DDFD5723200500231285008B
:1034B8002303F5002105F1B71387418D1C43411102
:1034C80022C426C24AC006C601440149BA8489E713
:1034D800A165852D0DC401A803C7E7FF6318A702DE
:1034E8001DC8A165F1269840832784FF6317E4026D
:1034F80023AAF18CFD57232C04FE230FF4FE22850A
:10350800B2402244924402494101828011E03E893E
:1035180083A787FF6DBF3E84E5BF232CF9FED9BF83
:10352800A9C9411122C406C62A849737002083C737
:10353800B7392E856368F400193F0D45B24022441F
:103548004101828083A785FF99E703C7E5FF9307B9
:10355800F00F6305F700E53D1545CDB7238F85FED0
:103568001385418DF13522852244B240A165410180
:1035780081A61545828023AA018C82809387C18EFB
:103588009C4399E33E85828003D727006316B700E2
:1035980003C70700E308A7FEDC47E5B74111939787
:1035A80005014AC006C622C426C2C1872E8963DE29
:1035B8000700193711C1613D21653345A900B240A3
:1035C80022449244024941018280AA860145E5D9F4
:1035D80001443D47B3578940858B95CB9387018E2E
:1035E8008443BD4791E28147A2978E070545BE9463
:1035F80033158500131405019C40C840418082970B
:1036080023A0040023A20400334524014DBF050470
:10361800E312E4FC0144CDBF9737002093870727C6
:103628009C53411122C406C61384818295C7829790
:1036380023A4A1820840B74703009387D73F3305E7
:10364800F502B7A72600938737ECB24022443E958F
:1036580023A4A18241018280973700209387C7263F
:1036680018409C4BBA9723A4F182E9B79387818DC0
:1036780090439736002083C63625814713F7F70F06
:103688006360D70A1737002003477738914763E00C
:10369800E70A9737002083C7273C918BC9EB0111B4
:1036A800680006CE22CC26CAEFC06031FD56630FF3
:1036B800D50C32479737002083C7771E63F3E70C92
:1036C80017370020130747204047173700200347C4
:1036D800271D6305D406058B21CF51473304E40227
:1036E80063F1870A97100020E78040A7B247637309
:1036F800F400A287173700200347771A998F3E9561
:1037080097370020938787188387470163CD07027F
:10371800B707C0A86369F502B70740573E9525A0CB
:1037280085071397170032970357E7FF21DB82803D
:10373800130790023304E40205805DB762076187CE
:10374800635707001D8D19E93705C0A801A8E37B59
:10375800F5FE3707C0A8B307F7403E959737002016
:103768009387C712DC53829709ED97370020938718
:10377800A7299C4F99C7EF10A114EF10A172EF1061
:103788008108F2406244D244056182809737002064
:1037980093878713DC47E386A7FE173700201307B4
:1037A800E70E83464701BA84858A9DC6514433840F
:1037B80087029737002083C7970EE3F487FC97109A
:1037C8000020E780A0999737002083C7570D1D8CEC
:1037D8002295838744011DBF130490023384870216
:1037E8000580C1BF2A9609E582800505A30FB5FEAD
:1037F800E31DC5FED5BF81473307F5000307070062
:1038080019E33E8582808507C5BF01112E8626CA29
:10381800AA84131506019305F004418122CC06CE33
:1038280032C697100020E780E0052A8419C5324681
:10383800A68597000020E780406D2285F24062440B
:10384800D2440561828081476314F6000545828071
:103858003307F5008507B386F5000347070083C6DD
:10386800F6FFE383E6FE014582809307F6FFBE95E7
:103878002A966313C5008280FD1583C715000505C8
:10388800A30FF5FEFDB7814711E901458280330793
:10389800F50003470700E31AB7FE8507E319F6FEAC
:1038A800054582809737002093870702884B8280DE
:1038B8009737002083C75701637FF5001387818DF1
:1038C8009317150008433E9583570500DD8D231097
:1038D800B500014582800D458280FD5701111737DB
:1038E80000202329F7FE9387C18E22CC80434EC641
:1038F80097390020938989F926CA4AC852C456C202
:1039080006CE5AC02A8981444E8A973A0020938A63
:10391800AAFB184481476374E900B307274103A74A
:1039280049021CC409CB03A7CA0063F6E70017378E
:1039380000202321F7FAA1E7835524009DE95C4480
:10394800A1E823A6F18E032BC4002285971000203E
:10395800E780E0FC5A8455FC83274A0285CF6244FD
:10396800F240D2444249B249224A924A024B056186
:10397800F5B9034504002D3F5C4081CB1CC4835737
:103988002400D5DFA2844044F9B71C44CDDBC5BF71
:10399800DCC455BFF2406244D2444249B249224A8B
:1039A800924A024B056182809737002083C7D7F17E
:1039B8006371F5021387818D93171500084393C52A
:1039C800F5FF3E9583570500FD8D2310B500014591
:1039D80082800D4582809737002083C7F7EE6364A5
:1039E800F50001458280411122C426C24AC006C69C
:1039F8002A842E89B284EFF07FB801C504C5054535
:103A08002DA0936504F0C205C1814145971000209F
:103A1800E78040E70DE197370020938727E79C5B15
:103A280081C7A285114582970145B240224492443C
:103A38000249410182809387C18E9C438DE323A66E
:103A4800A18E85472326050004C5231125012300DF
:103A58008500A300F5002322050055B7BA87D8478B
:103A680075FFC8C7F9BF45C539715AD0138B018E88
:103A780022DC26DA4AD84ED652D45ECE66CA6AC846
:103A88006EC606DE56D262CC3689328AAE89AA84E0
:103A980001445A8DB94D854BF94C03270B00131C73
:103AA8003400937AF40F62971C43A9EF13B5FA0018
:103AB80013451500B3978B0063F65D01930714FF58
:103AC800B397FB0093950701C181528629371DC919
:103AD80083270D000145E29784C323A237016304BD
:103AE800090023005901F2506254D2544259B25984
:103AF800225A925A025BF24B624CD24C424DB24D62
:103B0800216182800504E31A94F92145E9BF09453A
:103B18008280411122C426C24AC006C6AA842E89C0
:103B28003284553DCA852685EFF05FA509C940C195
:103B38000145B24022449244024941018280214514
:103B4800CDBF411122C426C24AC006C6AA842E8906
:103B5800EFF0DFA22A8419C123110500973700204E
:103B680083C787D6639497002392218FCA852685B9
:103B7800253D014511E01945B240224492440249CD
:103B8800410182807547636BA7041387018E144334
:103B9800411126C293143500A696944222C406C643
:103BA800AA873A84094595C613B5F70039471345DE
:103BB80015006373F700C5178545B395F500C20571
:103BC800C18141371C400145A69723A0070023A2C5
:103BD8000700B24022449244410182800945828014
:103BE800411106C6EFF09F9909C50845B240410149
:103BF80082800145E5BFF54763EDA7049387018EF1
:103C08009C4313173500BA979843894721C7011178
:103C180026CA06CE9334F50022CCB94793C41400C3
:103C280063F3A700451505443314A40042044180FA
:103C38002EC62685A2856D378947324609C5A285D5
:103C48002685513B8147F2406244D2443E85056156
:103C5800828089473E858280239EA18C239FB18CD8
:103C68008280411106C623A4A18E0295B2409737DF
:103C7800002023A5A7C6014541018280994763E931
:103C8800B7008A0597370020938747C6BE9588C135
:103C98008280411106C6EF50916F714681451735F4
:103CA80000201305A5C4EFF0FFB3130640028145B9
:103CB80017350020130545C1EFF0DFB223A6018EAA
:103CC80023A4018E9737002083C707BE13D527008A
:103CD8008D8B3E958D473305F502930510103505FC
:103CE8001375F50F973700202381A7BE9947330531
:103CF800F5021305050F97100020E780A0B823A050
:103D0800A18E35C9994717360020034606BC3306ED
:103D1800F60281451306060FEFF0DFAC9387018E9C
:103D28009C439387070F23A8F18E1737002003477A
:103D3800C7B90A07BA9723ACF18CEFF0DF835D2689
:103D48009387018F98439737002083C7F7B79396D7
:103D58002700BA96170600001306868490C2938639
:103D68002700850793F7F70F8A0797350020A38D5B
:103D7800D5B4BA9790C3B2404101828097370020EA
:103D880083C797B417370020034727B463F1E702C6
:103D98001387018F18439386170017360020A30551
:103DA800D6B293962700369708C33E85828093073C
:103DB800F00FE5BF1C416381071A41777D8FB70675
:103DC80000208947631BD718035745006307071866
:103DD800411122C419462A849305F00F590506C6D5
:103DE800EFF07FAA05478D476303E5161C4481CB96
:103DF80058589947630D0714185C630A071413068B
:103E0800C003814517350020130545A8EFF09F9D95
:103E18001306C003A28517350020130525A79700B0
:103E28000020E780800E9737002083D7E7A69736D3
:103E380000209386A6A599E793070010173700205E
:103E4800231CF7A49737002083C727A591E7854748
:103E5800173700202303F7A49737002083C7F7A359
:103E680091E7ED4717370020A309F7A297370020FD
:103E780083C7C7A291E79547173700202300F7A209
:103E88009737002083C797A191E785471737002008
:103E9800A306F7A09737002083C797A099E783C7A1
:103EA800060117370020A30DF79E9737002083C718
:103EB800079F91E7D147173700202302F79E9737CE
:103EC800002083C7879E95E7173700200347479D43
:103ED8001316870161869307C0026348060093772B
:103EE800170093B717009387D70217370020230EC0
:103EF800F79A9737002083C7979A95E717370020D6
:103F08000347079A1316870161869307C00263481F
:103F180006009377170093B717009387D7021737D0
:103F28000020A30EF7968347D40191E789471737F6
:103F38000020A30BF7969C5691C7829797370020CD
:103F48002397A798B933FD57A38CF1A48147B240B2
:103F580022443E854101828089473E858280011145
:103F680022CC06CE2A842EC6EFF00FEBB245F240E3
:103F7800818D33A5A502229562441375F50F05615D
:103F88008280011122CC06CE2A842EC6EFF0CFE81B
:103F9800B245F240818D33A5A502229562444205BF
:103FA800418105618280011122CC06CE2A842EC669
:103FB800EFF08FE6B245F240818D33B5A502229528
:103FC800624405618280973700209387278C985731
:103FD80025C3411122C426C206C6BE8402971737DC
:103FE80000200357C78E2A8441C7BA876373A70086
:103FF800AA87C207C183BA866373E400A286C20691
:10400800C182958F51476355F706DC5491C3829757
:10401800854717370020230DF79EEF00D1549737B7
:1040280000202396878AB24022449244410182802C
:104038009737002083C7C79D9DE797370020938750
:10404800A79C83C79700850793F7F70F17370020BA
:10405800A300F79CA18B9DC785471737002023191C
:10406800F79A6F00315697370020A383079AD5BF78
:104078009737002083C7C799DDD72244B2409244BE
:104088004101C5B782809737002093872780D8578A
:10409800011122CC06CE3E8401C72AC602973245BA
:1040A80011CD23AAA18E170500201305A50CEFF04A
:1040B8005FBBF24062440145056182808307440189
:1040C80063DD07009737002023AC0780970700209F
:1040D8009387E70423AAF18EF9B7970700209387FF
:1040E800E707CDBF011122CC172400201304047A5E
:1040F800084406CE26CA4AC801E90545F24062448A
:10410800D2444249056182805C58E5DB185C75D76A
:104118007000854582971844B247E300F7FE93057F
:10412800E004172500200355257797000020E78035
:104138006075172700202327A77A61D1172600204A
:10414800035686759305F00FEFF0CFE981441729E0
:104158000020130969779727002083C7077403266F
:10416800C90163C1F402328597000020E780207BF3
:1041780001459727002023A707769727002023A526
:104188000776ADBF9725002083D50571B3879502C3
:104198000844185C898185043E9508C2029765BF6A
:1041A800411122C4172400201304446E1C4426C263
:1041B80006C64AC0972400209384047191EBC84C2A
:1041C80035E9B240224492440249014541018280C6
:1041D8001C5CF5D7DC4C99EF9305E004172500200B
:1041E8000355856B97000020E780C069972700205A
:1041F80023AAA76EC84C61D5172600200356C669A6
:104208009305F00FEFF00FDE01499727002083C7D1
:10421800C768D04CE355F9FA9725002083D5C567C0
:10422800338525031C44898105093E951C5C08C219
:104238008297E1BF97000020E780606E97270020F3
:1042480023A2076A9727002023A0076A9DBF0111B0
:1042580056C2972A0020938A6A6383A78A0022CCD1
:104268004AC84EC606CE26CA52C45AC0AA892E8447
:1042780032896385072203A74A03630707147D472A
:104288006366A714972400209384046403AAC401D6
:1042980063170A0A9565938515E0172500200355CD
:1042A800A55F97000020E780E05D9727002023ABFB
:1042B800A7622A86630A051083A74A0303A58A0012
:1042C8009725002083D5455D8981829783A78A0039
:1042D80003AAC401172700202328F7608947639C95
:1042E800F908C1476312F40E9725002083D5C55AF3
:1042F800938505FC9147B3C5F5028A05D29503C796
:1043080005009307A005631DF70A83C71500639985
:10431800370B4A852286910597000020E780E0BE8A
:10432800DC4C5285639347150145F2406244D24400
:104338004249B249224A924A024B0561828098500A
:10434800E38EE7F89565938525E01725002003554A
:10435800A55497000020E780E0522A8A35C52A86AE
:1043680083A74A0303A58A009725002083D5C55251
:1043780089818297A5B78D47639DF900C147631569
:10438800F4049725002083D52551938545FDF1999F
:10439800B5B79147639AF90063183403972500204D
:1043A80083D5854FA115E5B7C147639FF900A1479C
:1043B80063EC87009725002083D5054EC115C1BF42
:1043C800DC4C52856397470D294585B71307F006DE
:1043D800568B6361A70A130A05FE1947334AEA0296
:1043E800172700200357474B972A0020938ACA4D66
:1043F800330AEA023E9A83A70A026395470183A417
:10440800CA019DE49305E004172500200355C5481B
:1044180097000020E7800047AA845DD583274B03D7
:104428009725002083D545472A868981528582971A
:1044380091451307A005898193972500A69783C600
:1044480007006393E60483C61700639C360385055B
:104458008A052286A6954A8597000020E780E0AA6B
:1044680083A7CA01E38297EC268597000020E7809E
:10447800004B5DBD1307E007E368A7F4130A05F9CD
:1044880085B783D5270045BF83A7CA01E38E97F276
:10449800268597000020E78080483DB797270020B1
:1044A80093878742CC4F8DD191479306A005898386
:1044B800139727002E9703460700E317D6F0034605
:1044C8001700631C360185078A072286BE954A8530
:1044D80097000020E78060A381BD83572700C1BFF4
:1044E800972700209387873A984739C79C5FA9C7C1
:1044F80005476313E504411122C41724002013045F
:10450800A43C504C06C60DC608509725002083D5FC
:10451800A53889818297484C97000020E780204081
:104528009727002023A0073C9727002023AE073AAF
:10453800B240224441018280828001111727002065
:104548001307C7344EC68329870022CC26CA4AC817
:1045580006CE52C456C2AA842E843289638A0920A0
:104568001C5FBA8A99EB2945F2406244D244424919
:10457800B249224A924A056182805C5BEDD7FD47C9
:1045880063E9A70E972900209389093483A7C901F5
:10459800B1CB03A58A0083A709026395A7068947BB
:1045A8006393F408C147E310F4FC17250020035572
:1045B800A52E9147130505FC3345F50293172500F1
:1045C80003A5C9012286CA853E959307A005230045
:1045D800F500A3009500110597000020E780E09200
:1045E800014559B79305E004172500200355C52A4E
:1045F80097000020E78000299727002023A4A72EF2
:1046080049F995B783A74A0303A6C901972500204E
:1046180083D585288981829783A78A001727002058
:104628002324F72CADBF8D47639EF400C147E31CDC
:10463800F4F21725002003552526130545FD937729
:10464800C5FFBDBF9147639AF400E31E94F0172598
:104658000020035565242115DDB7C147E395F4F023
:10466800A147E3E287F0172500200355E52241150D
:10467800F9B79307F00663EAA706930705FE1947FB
:10468800B3C7E7021727002003570721172A00207E
:10469800130A8A23B387E702BE998327CA01A9CFE1
:1046A80083270A02639A37070325CA01914613082C
:1046B800A005FD5593D72600C207C183139727008D
:1046C8002A9703460700631D060783481700035609
:1046D800270063959806B306D64063CF86048507FE
:1046E8008A072286CA853E95C5BD9307E007E3EC95
:1046F800A7E6930705F979B79305E0041725002085
:104708000355851997000020E780C01797270020D8
:1047180023AAA71C51F581BD83A74A030326CA0112
:104728009725002083D5451789814E85829797273D
:10473800002023AB371B8DBFA300B700B2869DBFF7
:10474800B385860017260020035606159105130623
:1047580006FCE3FAC5E0130634001376C60F11060B
:10476800B29623000701A30097002311D70085BF45
:104778009727002093874715D44FBE89A1C203A568
:10478800C90191461308A005FD5593D72600C20715
:10479800C183139727002A97034607006316060567
:1047A800834817000356270063989800B306D6403D
:1047B800E3D786F2A300B700B286C1BF8357C7000C
:1047C800172500200345650D9305E0043305F50220
:1047D8004205418197000020E780C00A9727002002
:1047E80023A2A71049FD41B3172600200356C60A85
:1047F8009725002083C5650AB385C50233868600E0
:104808001106E3E2C5D681BF01458280011106CEBB
:104818002EC6EF70003501C9B245F2400355250098
:1048280005616FA0C063F240494505618280A3809D
:1048380001922380019223A4019023A6019023A82A
:10484800019023AA019023A2019023A00190972709
:1048580000209387670B3707B40098C33747A00039
:10486800D8C3370710009306070A94C7B706500045
:10487800C106D4C7930607054107D8CB3707D00729
:10488800410798CF3707840398D337C70700130722
:1048980007B8D8D3416794CB93060701130717F8D5
:1048A800D8D7370781FF98DB7D5723AE070094D709
:1048B800239AE7028280011126CAAA84214522CCC4
:1048C80006CE2E8432C636C43AC2EFE01FBB1DC9DD
:1048D800A24612473246930700FD2300F500994788
:1048E800A30095002301F5002303D500A303E500E9
:1048F8002312C500AA8522856244F240D24405618C
:104908006FE01FC2F2406244D2440561828023A452
:10491800A190828023A6A190828023A8A190828062
:1049280023AAA1908280011122CC4AC806CE26CAA9
:104938002A890144B30489006368B400F2406244E0
:10494800D2444249056182802EC6EFE0FFCC93171E
:104958000501C183A183B2452380F40093071400A5
:1049680093F7F70F850463F9B700CA970904238002
:10497800A7001374F40F7DBF3E847DBFC167172560
:104988000020035545FCFD176302F502411103C6DB
:10499800C19A9385819106C6EF60F07DB240FD57BC
:1049A800172700202311F7FA41018280828009C964
:1049B80025151375F50F1335850E134515008280DF
:1049C8000145828023800500F94763E2C7087971B1
:1049D80022D426D24ECE56CA5AC806D64AD052CC6F
:1049E8005EC63684B289AE8A2A8B814463FF340559
:1049F800B307940003CA0700138914001379F90F49
:104A080063050A04B3072A0163C1F904B307240143
:104A180083CB07005E85613F0DC99307FAFF2380AA
:104A2800FA0063906B03130519002295B2502254C3
:104A380092540259F249624AD24A424BB24B4561FA
:104A48008280D29493F4F40F55B70145C5B7014558
:104A58008280411126C2AE8422C49727002023AB4E
:104A6800C7EE9727002023A5B7EE9727002023AF8E
:104A7800A7EC2A8441469305F00F26854AC006C64E
:104A88000549EFE05FE0631E250397270020938721
:104A980027EB884BC145413D41469305F00F2285E0
:104AA800EFE07FDE854463169502224497270020B5
:104AB800938707E9B24092440249C847C14541017A
:104AC8009DB5414681452685EFE0FFDBE31625FDD0
:104AD8006DBF414681452285EFE0FFDAE30795FC8B
:104AE800B24022449244024941018280411122C4C9
:104AF80026C22E84AA8413060002814517250020A9
:104B0800130505E406C6EFE0FFCD97270020A38A2A
:104B180097E2A387819AEFA00036854719C181479C
:104B28004945B240224417270020230BF7E092445E
:104B380041018280814781CD19C98547631BF500F2
:104B480083C7550093E707FCA382F50085473E8598
:104B5800828089476317F50083C7550093F7F703E9
:104B6800E5B70D478547E314E5FE03C755001377FE
:104B7800F70313670704A382E500D1BF81478DC1FE
:104B880005C103C755009306000C85471377070C2A
:104B98006308D700930600048D476303D70089474D
:104BA8003E858280411122C4005D06C626C21DC80A
:104BB800AA84085009C597000020E78040D64850CD
:104BC80009C597000020E78080D5085409C59700DB
:104BD8000020E780C0D4228597000020E78020D4F9
:104BE80023AC0402B240224492444101828009ED80
:104BF8009727002083C7E7D4172500201305C5D5BC
:104C080081CB1385818F8280172500201305C5D499
:104C18008280172500200345C5D28280972700206F
:104C2800938707D2C847828097270020938747D168
:104C3800884B828097270020938787D0DC4B884356
:104C48008280972700209387A7CFD84B1C438507DE
:104C58001CC3172500200345D5CE9307F00F630525
:104C6800F50091656FE0DFC48280011122CC06CE89
:104C78002E8432C6EF60307E9147B245631FF5003F
:104C8800938741919C438DC303A30700630E0300E0
:104C980022856244F240056102839387C1909C4358
:104CA80081C703A34700DDB7F240624405450561AB
:104CB8008280011122CC2A840355450006CE26CADB
:104CC8004AC84EC6EF60105A35C52A898344050084
:104CD8008349C500C13D4A85EF70705103554400B2
:104CE800EF60F07283C70192B1CB6399970483C5D3
:104CF80011922685EFF09FB119E1238001920355A7
:104D08004400EF6050759147631FF5000357440056
:104D18009727002083D727C36317F700FD57172766
:104D280000202312F7C2F2406244D2444249B249F9
:104D38000561828081499304F00F6DB79307F00FE6
:104D4800E38FF4FA834664000356440003452400C5
:104D58004E87A685EFF03FB65DB779715EC6AA8B20
:104D68002E8552CC56CA5AC806D622D426D24AD044
:104D78004ECEAE8A328B368AEF60D04E6DC1045D5E
:104D88002A89F1CC9C50614599C3130540039C5472
:104D980081C751054205418163050A007105420535
:104DA8004181DC5081C7590542054181EFE0EFECB4
:104DB8002A8455C561468145EFE0DFA29729002086
:104DC80083C989B76394090083490900930700FDE3
:104DD8002300F400A947A30074012301F40023036E
:104DE80064018C50231254011305840191C908C42D
:104DF8007146930A440397F0FF1FE7800011568518
:104E08008C5491C948C45146930A450197F0FF1F35
:104E1800E780A00F5685630C0A0008C87146D28542
:104E2800930AC50197F0FF1FE780200E5685CC50E6
:104E380099C548C8594697F0FF1FE780000DA2851D
:104E48004E85EFE0EFED2254B2509254F249624A97
:104E5800D24A424BB24B4A8502594561A1B3B2507E
:104E6800225492540259F249624AD24A424BB24BF6
:104E78004561828001114EC6AA892E854AC806CE90
:104E880022CC26CA2E89EF60F03D31C59724002038
:104E980083C484AA99E0834405001945EFE0EFDD57
:104EA8002A8415C981451946EFE0DF93930700FD71
:104EB8002300F400B947A30034012301F4002312AE
:104EC8002401A2856244F2404249B2492685D2446F
:104ED80005616FE0EFE4F2406244D2444249B249CE
:104EE8000561828039715ECEAA8B2E8526DA4ED670
:104EF80052D456D25AD006DE22DC4AD8AE84328B3F
:104F0800B68A3A8ABE8942C6EF60D03531C92A8945
:104F18004145EFE08FD62A8421C541468145EFE01F
:104F28007F8C17250020034525A119E103450900B9
:104F3800930700FD2300F400BD472301F400B247A6
:104F4800A30074012312940023046401A3045401F0
:104F580023054401A30534015CC4A285EFE04FDCBE
:104F6800F2506254D2544259B259225A925A025BB0
:104F7800F24B21618280797126D2AA8439454AD0C0
:104F88004ECE06D622D42EC6B2893689EFE0EFCEB1
:104F980021C1B2459307000D2310F500B1472A84BB
:104FA8002312B5002301F500CE851905194697F09F
:104FB800FF1FE78080F523062401A2852254B25002
:104FC8000259F24913F5F40F925445616FE04FD539
:104FD800B250225492540259F249456182801727EF
:104FE8000020034717969307F00F630DF70641114A
:104FF80026C2AA84394522C406C64AC0EFE0EFC7D4
:105008002A8439C9930700FD2300F500A300950001
:105018002301050097250020938505940D05194661
:1050280097F0FF1FE78060EE1729002013094991C8
:1050380083578900A28517250020034595902315DD
:10504800F400834719002306F4002244B240924436
:10505800024941016FE0CFCCB24022449244024958
:10506800410182808280011156C2AA8A314526CA2E
:105078004AC84EC652C406CE22CCAE84328AB689FD
:105088003A89EFE08FBF29C92A842685EF60901DF1
:105098001DCD03450500930700FD2300F4009D473F
:1050A800A30054012301F4002312940023134401A4
:1050B8002314340123152401A2856244F240D2440A
:1050C8004249B249224A924A05616FE06FC51725E5
:1050D800002003451587C1B7F2406244D2444249D3
:1050E800B249224A924A05618280397162CC2A8C7F
:1050F800594526DA4AD84ED652D456D25AD05ECE20
:1051080006DE22DCAE8432C636C4BA8B3E8BC28A37
:10511800468A8359010403494104EFE00FB635C5B7
:105128003246930700FDA2462300F5009547A301E8
:10513800C500A30085012301F5002A84194611053D
:10514800A9C2B68597F0FF1FE78020DC230664011B
:10515800230A240123157401231754012318440139
:1051680023193401A2856254F2504259B259225A85
:10517800925A025BF24B624C2685D25421616FE051
:105188002FBA8145EFE00FE6D1B7F2506254D254FE
:105198004259B259225A925A025BF24B624C21612F
:1051A80082809717002083C7C7798DCB4111AA85C4
:1051B80019461385818F06C697F0FF1FE780E0D454
:1051C8009385818F171500200345A577EFF09F96EB
:1051D800B2401385818F41016F90704A01458280EA
:1051E800171700200347F7759307F00F6305F708B3
:1051F800411126C2AA84294522C406C6EFE0EFA7BA
:105208002A8429C1930700FD2300F500A147230143
:10521800F500A3009500971700209387677283C74E
:1052280027009385818F1105A30FF5FE194697F086
:10523800FF1FE78080CDA2851715002003457570F4
:10524800EFE00FAE171700200347A76F8D47631FC6
:10525800F700938701919C4391CB03A387006307D1
:1052680003002244B240924441010283B2402244E6
:10527800924441018280171700200347876C8D47AD
:10528800631AF700938701919C4389C703A387009A
:10529800E31D03FC8280797122D406D626D24AD037
:1052A8004ECE52CC094445C92A89035505002E8A99
:1052B8005144EF60207BAA8459CD83C7F19AFD172A
:1052C80093F7F70F054749446377F7080347C50085
:1052D800A1476314F70063100A089C5C4544A5EFD6
:1052E8009165938545711305C00297F0FF1FE7800C
:1052F800605988DCAA894D4439CD1306C00281451E
:10530800EFE04FCE835709009386490036852391F5
:10531800F90071469305490036C697F0FF1FE780EC
:10532800C0BE89472380F90003C5C400B2460356AE
:105338000900611583C5C19A13351500EF9040091E
:105348002A8463060A00D2852685EF70701501C489
:105358002685EFF03F852285B25022549254025997
:10536800F249624A4561828083C7F19AFD1793F733
:10537800F70F05476378F708894751C6011122CC12
:1053880026CA4AC84EC652C406CEAA89368AB284EC
:105398002E89EF60206D2A84D14729C9485509C54F
:1053A80097F0FF1FE780A057F1452685EFE0EFC58E
:1053B80048D4CD4705CD8346C40021478147639F24
:1053C800E600630D0A000347A5010356050193068D
:1053D8002501AA854E85EF708004AA8703474400FB
:1053E800630F0900136767002302E400F240624478
:1053F800D2444249B249224A3E85056182801367F8
:105408004700DDB7C9473E858280E54763EBA700C3
:10541800971700209387474F06053E9503550500CB
:10542800828041657D158280011122CC2A842E85D7
:1054380026CA06CEAE84EF60E0620DCDB7470F00F6
:105448009387F723094563E2870281450A85414628
:10545800EFE04FB9A685231081000A85418023011A
:105468008100A3010100EF801059F2406244D24448
:10547800056182804945D5BFA386A19A82806F8045
:10548800F06D797152CC2A8A328522D426D24AD03C
:105498004ECE56CA5AC85EC606D662C4AE8BB28A0B
:1054A800368BBA843E89C2894684EF60A05B15C9F1
:1054B8002A8C63140A0213774B008347450015CFE3
:1054C80093E727012302FC008DEC631C0902639A11
:1054D800090205E8ED9B2302FC00832B8C03639FE4
:1054E8000B06B250225492540259F249624AD24AE7
:1054F800424BB24B224C45618280F59B93E70701F2
:10550800D1B793E747002302FC0001CC1C48414671
:10551800A2852324FC0213058C0197F0FF1FE78066
:10552800C09E63910B02D5D80325CC0209C597F01C
:10553800FF1FE780C03EF1452685EFE00FAD23262B
:10554800AC0261BFE30B09F80325CC0209C597F04B
:10555800FF1FE780C03CF1454A85C5B79DC483A7B6
:105568000B0299EB916593853571714597F0FF1F93
:10557800E780403123A0AB0203A50B0219C5714691
:10558800A68597F0FF1FE78040986388090283A7E4
:105598004B0299EB916593852571594597F0FF1F4B
:1055A800E780402E23A2AB0203A54B0219C559463A
:1055B800CE8597F0FF1FE78040951DC483A78B0217
:1055C80099EB916593851571514597F0FF1FE78019
:1055D800602B23A4AB0203A58B0219C55146A285F3
:1055E80097F0FF1FE78060922254B2509254F2491C
:1055F800B24B224CCA865A860259424BD6855285EE
:10560800D24A624A45616FF04FF5011126CA52C469
:1056180006CE22CC4AC84EC62A8AAE84EF608044A1
:1056280025C5AA893945EFD05FE52A8431CD1719F8
:105638000020034969306314090003C9090093076E
:10564800000D2310F400AD472301F4009385690091
:1056580013053400194697F0FF1FE780008B93F776
:105668001400858085882306F400A306940023157A
:105678004401A2856244F240D244B249224A4A8592
:10568800424905616FD0DFE9F2406244D2444249A1
:10569800B249224A0561828093870190884301CDEF
:1056A800411106C697F0FF1FE7806027B24023A08C
:1056B8000190410182808280011106CE22CC26CA47
:1056C8004AC82EC6EF60003A39CDB24517190020F6
:1056D80003498926AA840CD56314090003490500E7
:1056E8004145EFD09FD92A841DCD9307000D231083
:1056F800F500A5472301F50083C75400938564008E
:105708001105A30FF5FE194697E0FF1FE780E07F1C
:105718009C54A285F2405CC46244D2444A85424902
:1057280005616FD0FFDFF2406244D244424905610F
:105738008280797122D406D62A842EC6EF60803200
:105748000DCD8346C5001147AA8749456393E602F4
:105758009C5FB24599C383C567010808EF70405D37
:10576800978600009386C6E5100889452285EF6074
:10577800D04FB2502254456182805145DDBF83C766
:10578800F19AFD1793F7F70F0547637AF7048947EE
:1057980021CA411122C426C24AC006C6B2842E8933
:1057A800EF60402C2A84D14705C563080900834768
:1057B800450093E727002302F5004146A685130517
:1057C800840197E0FF1FE78040749C481CD4814700
:1057D800B2402244924402493E8541018280C94731
:1057E8003E858280797122D406D62A842EC6EF603F
:1057F800602701CDB2452285230EB1006C08EF70F9
:10580800A046B2502254456182805145DDBF6F6089
:10581800403AC1671387E7FF6394E5029387C19015
:105828009C4391EB494582804945B24022449244C9
:1058380002494101828003A30700E30503FE0283B6
:10584800411122C426C24AC006C6FD172A892E84E1
:10585800B2846395F5029387C1909C4391CB9C4396
:1058680081CB829711E523802193A380919275BF04
:10587800A6854A85EFE09FF94DF9F5B72E85EF60CB
:10588800601E5DD1834705000D45E39027FB228507
:105898002244B2400249A685924441016F90205C9F
:1058A80065476362A7044111416722C406C626C240
:1058B8007D172A8409456383E502C547AE846315CD
:1058C800F4002E85EF902061931714001714002020
:1058D80013048403A297239097000145B240224401
:1058E80092444101828009458280011106CE2AC670
:1058F800EFE0FFF3EF10A003EF00E075EF30B163C6
:105908003245971700209387A703130700F02391C8
:10591800E700238207007D579387C19AA380E70099
:105928002380A700F240954505616F40702F1D71D7
:1059380093970501CAC886CEA2CCA6CACEC6D2C441
:10594800D6C2DAC05EDE62DC66DA6AD8C1872E8922
:1059580063D0074C03C5C19AEFD01FB68964416A6A
:10596800856A797B2A84938BD4007D1AA50A691BE2
:1059780015E021653345A900F6406644D6444649FA
:10598800B649264A964A064BF25B625CD25C425D97
:1059980025618280834704001307200A639DE7007E
:1059A80003552400171C0020034CBCF92286D2851D
:1059B800EFF0AFAB3DAA1307100903CCD19A639758
:1059C800E716834714001547639EE7002285EFF02A
:1059D8004FAE2285EFD0BFA703C5C19AEFD0DFAD88
:1059E8002A8479B739476399E71603554400631B3E
:1059F80055050C4483C90500639D0900850591C9B7
:105A0800194617150020130525F597E0FF1FE780B5
:105A1800C04F171700200347A7F285476318F710F0
:105A2800638A090097170020238C07F04E85EFF052
:105A38000FDB45B78947171700202303F7F0EF90CE
:105A4800C04341BF93872400631AF5068329840065
:105A5800638E090C83C709008DE383C7290003C738
:105A68001900A207D98F17170020231FF7EC83C747
:105A7800390017170020A305F7EC17170020034774
:105A880027EC89476314F70A83C7090081CB971766
:105A98000020238707EA03C5090051BF8D479715E2
:105AA800002083C5F5E9171500200355E5E9171708
:105AB80000202307F7E8EF40B019F1BF938754009F
:105AC8006318F5001C4403C50700EFF06FF111B728
