:040000006F10801CE1
:1000040000000000000000006F0080086F00202541
:1000140000000000000000000000000000000000DC
:1000240000000000000000000000000000000000CC
:100034006F004006000000006F00E00500000000B3
:100044006F0080056F0060056F0040056F0020059C
:100054006F0000056F00E0046F00C00400000000A2
:100064006F0060046F0040046F0020046F00000400
:100074006F00A0266F00C003000000006F00600343
:100084006F0040036F0020036F0000036F00E00265
:1000940001A001A001A001A001A001A001A001A054
:1000A40001A001A001A001A001A001A001A001A044
:1000B40001A001A001A001A001A001A0B717004068
:1000C400130770052380E704130780FA2380E704ED
:1000D4000F1000002396A70223800704371700405F
:1000E40083472705898BEDDF8357070537170040C2
:1000F40083472705898BEDFF371700408347270582
:10010400898BEDDF035507058280B71700409306FE
:1001140070052380D704130780FA2380E7040F10A7
:10012400000003C6B7041376F60DA385C704238025
:100134000704137605023DCA03C6A700118A1DE20F
:100144002380D7042380E7040F10000003C7A7000F
:10015400136747002385E7009307004B0100010064
:10016400FD17EDFFB7170040930670052380D704F1
:10017400130780FA2380E7040F1000007D8923947D
:10018400A70001000100010001002380070423806F
:10019400D7042380E7040F1000003727004093069C
:1001A4001005A303D78023800704828013760504F7
:1001B4006DDE03C6A700418A1DE22380D704238095
:1001C400E7040F10000003C7A70013670701238586
:1001D400E7009307007D01000100FD17EDFFB7174D
:1001E4000040930670052380D704130780FA238008
:1001F400E7040F1000007D89136505042394A7000C
:100204000100010001000100238007042380D704BA
:100214002380E7040F1000003727004093063005C1
:1002240049B74111814601468145114506C651220F
:10023400B7170040130770052380E704130780FAFB
:100244002380E7040F10000003C767041367170037
:100254002383E70423800704B2404101828081465E
:10026400014681451145B122B71700409306700538
:100274002380D704130780FA2380E7040F100000BB
:100284007D562396C7022380D7042380E7040F10EA
:10029400000003C76704136717002383E704238060
:1002A400070401A0BD473305F50201007D1575FD66
:1002B4008280411122C426C206C6AA84014463175F
:1002C4009400B24022449244410182800504130503
:1002D400803E4204C13F4180DDB7B7170040130799
:1002E40000032388E702854723A2F18873002030A6
:1002F400411106C69929FDBF2303048095472303B2
:10030400F4802302A480828083076480E3CE07FE06
:1003140023030480828083076480E3CE07FE0345C1
:100324004480828083076480E3CE07FE2302A48096
:100334008280411126C44AC24EC006C61377F50B0B
:10034400AD47AA892E8995446306F70019456D3790
:10035400653F8D444E854D37FD59FD146398340136
:10036400B240A244124982494101828013550901D5
:100374001375F50F453F2209CDB7011126CC06CEE2
:10038400B704080051371545853F713769372AC6C8
:10039400A53F32459377150089EB13651500137556
:1003A400F50FF240E24405618280FD14E9FC014549
:1003B400CDBF397126DC4ADA4ED852D656D45AD239
:1003C4005ED062CEB7E700E006DE66CC6ACA41477B
:1003D40083AB070422C6B8C37D5703AB070083AAC7
:1003E400470023A0E71823A2E718B7170040130714
:1003F40070052380E704130780FA2380E70483C78A
:100404004704130C75FFB684E207137CFC0F854682
:100414002A8A2E89B28937240040E187015763FA7A
:1004240086016308D5008946130700026313D500CB
:100434000157D98F93F7F70F371D00402302FD04AE
:1004440011472303E4801305F00F7D35894C6D3D7E
:1004540063EB8C11B70707003E993787070079557E
:10046400637EE902B3079900636AF702A947631C34
:10047400FA0689E48144493D26850DA0CA850945CB
:100484004D3D850903C5F9FFFD140509613D81C48E
:100494009377F90FFDF7D53569FD7D55B717004002
:1004A400130770052380E704130780FA2380E70409
:1004B40003C74704418B2382E704B7E700E023A086
:1004C4007705F25023A0671123A25711E254324456
:1004D4005259C259325AA25A125B825B724CE24C94
:1004E400524D21618280A5476314FA0685699307FA
:1004F400F00FB3869700B374F900B69493C7F7FF6F
:10050400FD8C33F92701416A056C9387F9FFB3F732
:10051400270199E363FC340193D94900C147E3E619
:1005240037FF89BF8567C169FD17E1B71305800DE2
:1005340063884901130500026384890113051008C7
:10054400CA85C53B1D3D31D94E99B3843441D9B7D1
:10055400CA852D45F93BCE94E38E99F08509653B18
:10056400A38FA9FED5BF9307FAFF93F7F70F63ECA8
:10057400FC0803475D04B70708001377070219E373
:10058400B78707007955E37BF9F033079900E3E770
:10059400E7F089476310FA048980554AE38C04EC38
:1005A400CA8509457933910903A7C9FF91472320D7
:1005B400E48003076480E34E07FE23034481FD17B0
:1005C400EDFBFD14110981C49377F90FE9FF75332D
:1005D40071F5E1B58547E307FAF4CA852D45913BEA
:1005E4001389F4FFE38804E83D339377390091EBF2
:1005F4008326048003A7090093874900E39DE6E668
:10060400BE89CA84F1BFB5476316FA001305900B7F
:10061400E5318DB5B1471305B00AE30BFAFE9947EE
:10062400631EFA02CA852D45293381440D4C214AA3
:10063400DD31639684018327048023A0F9008504B7
:10064400E39844FF832704801317290163550700A7
:100654002392F90005B523A2F90029BD9D4763192A
:10066400FA0281451305B004E931BD4423A0090011
:1006740023A209007D59453193F77400CE9703C72F
:100684000700FD14398D2380A700E39624FFDDB312
:10069400A1476312FA04D5318144630D09008D47E3
:1006A4009304C0036308F9009304000563049901EB
:1006B400930440041375C507E30E95DA19452D39E3
:1006C400A131054515392685B1390945A139753159
:1006D400E31205DAD9B391476319FA0013056006EA
:1006E40021391D311305900925B7E3050AD8F154C2
:1006F40059B309CDB7170040130770052380E704E9
:10070400130780FA2380E7042396A702828019C185
:10071400814799E982803387F500834607003307D0
:10072400F50085072300D700E397C7FEE5B719C195
:10073400FD5781E98280910503A7C5FF1105232E8A
:10074400E5FE7D16E319F6FEF5B7797122D4173468
:1007540000001304A48A1C4006D626D24AD04ECEEA
:1007640091C782979737000023AA07885C4089CBFA
:1007740003D5018BBD3F5C40829703D5218B953F08
:100784001C40639907189737000083C73799858BF6
:1007940095C797370000A3830798173700000347CE
:1007A4001798914763FCE700792B9737000083C7BC
:1007B4001797F9178A07A2979C43829797370000E7
:1007C40083C7879A918B89C7970001E0E780C07936
:1007D4001C4491C382979387C18A984317260000CB
:1007E4000346967F3E89972400009384E47E9727EE
:1007F400000083C7677E93961700BA9683D60600D7
:10080400638006109727000083C7077D63F2C7083B
:1008140086073E97835507002310070003D5018BF5
:100824002EC6239C018AF1359387418C9C4317255E
:1008340000000345657A13172500BA979C43B24517
:100844008297AA8903D5218B6D359727000083C72A
:10085400A778139717008327090003D5818B1345C5
:10086400F5FFBA9703D7070033753501598D2390E7
:10087400A70083C70400850793F7F70F1727000025
:10088400230CF774172700000347177563E6E70086
:1008940097270000238207741C40ADEF9387C18B18
:1008A40098433E8425CB9737000083C7978791CB25
:1008B4009737000083C7B78689E7970001E0E78090
:1008C400601B1C4082972A8431C59C48AA9717272D
:1008D4000000232BF7709387018C9C4385CF03D5AD
:1008E400018B013D228597F0FFDFE78040F422541D
:1008F400B25092540259F24903D5218B4561D5BBBC
:10090400850793F7F70F972600002387F66CE3E03B
:10091400C7EECDBDB250225492540259F2494561FA
:1009240082809167B7C600409387373023A6F620AC
:100934000F100000972700009387076A884F93875A
:10094400C19A9C43316713073730F053B70710003F
:10095400FD17918F99833A0523A6E6205D8D828049
:100964004111B7170040985F3AC6945F3247E39C41
:10097400E6FE324541018280411106C6D5379726ED
:10098400000083C6E662858AB1C693073033330715
:10099400F502B337F5023983CA07D98F1727000048
:1009A40013078763584B01456303F7023385E74018
:1009B400636BF70037653D0889C637856F081305F3
:1009C4000590198D3E95172700002321F762B24048
:1009D40041018280E5473307F502B337F5022583E9
:1009E400DE0765BF0327C50F8346B50097270000C0
:1009F400938787729C4F584393861602958290433F
:100A0400FD1693F6F60F10C3D04350C3904710C79A
:100A1400D04750C7904B10CBD04B50CB904F10CFFA
:100A2400D04F50CF91C61307070293870702C1BF67
:100A340082808347E50193F7E70FF1EF2A870345A7
:100A4400F50171E9034607018346870009CA834516
:100A5400A7029727000083C7B75563E7F50093F70C
:100A64000601C5CF814709CA834787150346771511
:100A7400C18AA207D18F81CA8346B7150347C71518
:100A84002207558FBA97D1CB172700001307477455
:100A94003847411122C406C67D548326070863F3F0
:100AA40086003684184375FB172700000347475018
:100AB40093168701E18663D906029387C71395834A
:100AC400172700000347674FBA9763D006041D8CAD
:100AD4009387818C9C4382973335A400B24022448F
:100AE4001345150041018280058B9387C71209CBFA
:100AF4008A079387F7031305D007B3D7A702C9B7AB
:100B04008607FD071305D003CDBFE372F4FC370558
:100B1400C0A82A946DBF014582808280411122C4FD
:100B24001384C19918404AC006C61C5F26C21389A3
:100B340081999983858BC1C31C5F9724000093849A
:100B4400A45D93F7F7F91CDF9727000083C7C75C00
:100B540093F707048DC39387818C9C4382979727CF
:100B6400000023A3A75C83C7040093F7F70B1727A0
:100B740000002303F75A854717270000A300F75AFC
:100B840083C7440093F7070481EF9387C19A9C437A
:100B9400D844B8D3930700FC172700002300F75864
:100BA4008387640063D90700832709009C431727C0
:100BB40000002306F75618401C5F8583858BC9CB3C
:100BC400F5571CDF010001000100010001000100D4
:100BD4000100010001000100010001000100010009
:100BE40001000100010001000100010001000100F9
:100BF40001000100010001000100010001000100E9
:100C040001000100010001000100010001000100D8
:100C140001000100010001000100010001000100C8
:100C240001000100010001000100010001000100B8
:100C340001000100010001000100010001000100A8
:100C4400010001009387C19A9C4313075004B8CB59
:100C540018401C5F9183858B89CFBD571CDF938718
:100C6400C19A9C4323A8070485471727000023073C
:100C7400F74A83270900D8430583058B19C7D8434E
:100C8400759BD8C3D843799BD8C3B24022449244BD
:100C9400024941018280397106DE16DC1ADA1ED857
:100CA4002AD62ED432D236D03ACE3ECC42CA46C808
:100CB40072C676C47AC27EC09535F250E25252535F
:100CC400C2533255A255125682567247E2475248D1
:100CD400C248324EA24E124F824F2161730020301F
:100CE4009387C19A9443172700001307E742BC5225
:100CF40089CF83472700858B89EB83473700858B12
:100D0400FDD797270000238B0740828037C7004018
:100D14001306C00393062003972500009385C53F5F
:100D240083278720C18393F7F7036369F60083273A
:100D34008720C18393F7F70363E6F60083C7450072
:100D4400858BF9DF82809387C19A9443172700002B
:100D54001307873CBC5289CB83470700858B91CB13
:100D640097270000238C073A97270000A388073AA7
:100D7400828083471700858BF1DFDDB79387C19AA3
:100D8400904337C70040C145E54683278720C18388
:100D940093F7F70363FBF50083278720C18393F759
:100DA400F70363E4F6003C52EDF382801387C199A4
:100DB4001843AA87185F1583058B25EF0345150093
:100DC40015051377C51F19C6B386E70083C6260029
:100DD4002300D60095C59726000083C6463493F6B3
:100DE40006040945A1CAB386E70083C63600054652
:100DF40093F5F6066390C504E206E18663CC060229
:100E04003385E7008347150003470500A20793F7DE
:100E14000770D98F1397070141839376074099C6CA
:100E2400136707802392E19A014582802392F19A05
:100E3400E5BF054582809386C19A8C423685972604
:100E440000009386662D984593170701C183137894
:100E540017203E86630408041377072079C303C769
:100E6400260013671700172800002308E82A130731
:100E74000019B8D1130700F8972500002380E52A4C
:100E84001387C1990C4337080010D855719B136719
:100E94002700D8D598413367070198C113772610E6
:100EA40005C31376061059CE03C70600136717004F
:100EB400172600002302E626172700002312072620
:100EC40083C6460093C7F7FFC207E206E186C183E3
:100ED400184163D106029396170163DE0606305368
:100EE4008D4663E9C6008546172600002308D622EE
:100EF4003453FDFE972600009386460A83864601F6
:100F040063DD060093960701C18663DC0604705313
:100F1400894663E4C6007453FDFE1447F58F1CC76D
:100F2400828003C716001367170097250000A38566
:100F3400E51E172700002303071E172700002311AF
:100F4400071EA9BF03C73600136717001726000042
:100F5400A305E61C95B78546172600002300D61C7A
:100F640051BF54471396060163510602B706100099
:100F7400FD1674D39726000093860606944E8506C4
:100F8400172600002326D60649BFA166D58F71B760
:100F9400397106DE16DC1ADA1ED82AD62ED432D2DD
:100FA40036D03ACE3ECC42CA46C872C676C47AC25D
:100FB4007EC05135F250E2525253C2533255A255BB
:100FC400125682567247E2475248C248324EA24EE7
:100FD400124F824F2161730020301727000013073E
:100FE40067158346B7019727000083C7F717B6979D
:100FF40093F7F70FFD4663EAF6044C4B972600007F
:10100400A38AF6129727000083C7D7120547331720
:10101400F70097260000A389F6146D8F1DEF97261D
:10102400000083C6B614B3F6D70213050002814745
:1010340033D6F500058A13F8F70F09CE6399E60055
:1010440097270000A388070F828081177DB70507C3
:101054001377F70F8507E39DA7FC82809387819B15
:101064009843B75702009387279F8326070913964F
:1010740056006358060083260709139666006344E6
:101084000600FD17FDF3828051C9AA870145C9C92D
:101094008D07C207C183F19BC207C18313074003B5
:1010A400636BF702138781A40843138701A41443D5
:1010B4006396A60217270000130747EE185B014545
:1010C40025C34111C20706C60545DD8D0297B2400E
:1010D400014541018280138741A4F9B70357650094
:1010E40005EF035745006369F702B306F74021464D
:1010F4006370D6021041938687001D8FAA966117EC
:1011040090C22392E6002393060014C12312F50033
:101114002313B50021058280084159BF014582800F
:10112400828001CD938781A403A80700938701A43B
:101134008C430147C28763E3B70082809443636FA3
:10114400F50663EDA60613868700E368C5FE03D59E
:101154006700216605066317C50003C6C195050629
:10116400238EC1942393070063840703138641A449
:101174001042630FF6000356670019EA83D747004D
:1011840014C383564700B697A1072312F700BA8702
:101194009843E304B7FA938641A49442E30FD7F843
:1011A40083566700D9FA83D647000356470018438D
:1011B400A106B2962392D70098C382803E87B68751
:0411C4009DBF0000CB
:1011C800974100209381013217710020130101E338
:1011D80013054000972500209385456217360020A7
:1011E8001306067E63FAC5008322050023A0550076
:1011F80011059105E3EAC5FE17B50100130505338E
:10120800973500209385C57B1386818563FAC500D1
:101218008322050023A0550011059105E3EAC5FEC8
:1012280013858185976500209385C5846377B5000C
:10123800232005001105E36DB5FE9302800873A015
:101248000230972200209382625B93E2120073902F
:10125800523037170040930770052300F7049307AF
:1012680080FA2300F7040F1000003C47B70600FA85
:10127800E116F58FB70600069506D58F3CC797226D
:1012880000009382A28B7390123473002030B7173A
:10129800004003C777051377E70FA38BE70413070D
:1012A80000F8A38DE7043D47238CE7041307500398
:1012B800A38CE7048280B717004003D587005D71CF
:1012C8005ED64205418186C6A2C4A6C2CAC04EDE09
:1012D80052DC56DA5AD862D466D26AD06ECE937788
:1012E800050C13070008814B638EE71813070004E9
:1012F8006392E716B7240D8F7D8993840480B3D455
:10130800A4029167938707E8BE94A167938707D0E3
:10131800B3D4F402EFA0E14D97B70100938707BA61
:101328009043D443EFA0A101EFA0310F2A8B939CE7
:10133800040103D9818593DC0C0163150900056953
:1013480013090980B7170040130770052380E704C5
:10135800130780FA2380E7040F1000000547371AA7
:101368000040939D0401096C85662389E704D14AEE
:10137800814E8145130D0A0413087005130680FA7F
:10138800894893DD0D01130C0C712943FD162300C8
:101398000D012300CD000F10000023162A0323009F
:1013A8000D0083472A05898BEDDF83570A0583479C
:1013B8002A05898BEDFF83472A05898BEDDF835743
:1013C8000A05239C2185C207C18333859741931958
:1013D800050193D90941638609163387B902635019
:1013E800070E850EC20E93DE0E0163EAD80D63DB8D
:1013F800050A3305B04093150501C185C204C180B3
:1014080063D9350BB7170040130770052380E7042D
:10141800130780FA2380E7040F10000009651305FD
:1014280005713385A5022396770323800704334586
:10143800950242054181B640264496440649F25930
:10144800625AD25A425BB25B225C925C025DF24DF8
:1014580061618280B1E3B77489097D8993840480CE
:10146800B3C4A4029167938707E8BE94A1679387E2
:1014780007D0B3C4F402EFA0C13797B70100938730
:1014880067A479BD97B701009387C7A2856403ABAA
:1014980007009384843861BD130B0000954441BD57
:1014A8003A89F5B5B387FC409399070193D9094167
:1014B800B1B70965130505713385A9028DBF338559
:1014C800B74163E4FC003385FD40330585033344AD
:1014D800B5036345830013150401A9BF4E8536C6BD
:1014E80042C432C2EFA00167DA85EFA08137EFA0CE
:1014F8004160931E050193DE0E41B307D941C2072F
:10150800C183056E3E871246224889482943B24660
:1015180063E3C701368742074183631A270113072C
:101528001900634430011307F9FF42074183FD1A8C
:1015380093FAFA0FCA8BCE85E3940AF6239CE184CA
:1015480059BF0145CDBDB717004003D587005D7170
:1015580086C642054181A2C4A6C2CAC04EDE52DC7C
:1015680056DA5AD85ED662D466D26AD06ECE02C631
:101578009377050C13070008638FE714130700041B
:101588006393E712B7240D8F7D8993840480B3D4C5
:10159800A4029167938707E8BE94A167938707D051
:1015A800B3D4F402EFA0E12497B701009387079121
:1015B8009043D443EF90B158EFA021662A89939ABB
:1015C800040103DBA18593DA0A0163150B00056B9F
:1015D800130B0B80B7170040130770052380E7042F
:1015E800130780FA2380E7040F1000000547939B38
:1015F80004018969056A2389E704D14D014D814CAD
:1016080093DB0B01938909717D1A5A859720002075
:10161800E780802A330C5541420C135C0C41239D12
:10162800618563030C16B3079C0363D3070E050D8E
:10163800420D135D0D01894763ECA70D63DD0C0AAC
:1016480033059041931C050193DC0C41C204C18011
:1016580063DA8C0BB7170040130770052380E70483
:10166800130780FA2380E7040F10000009651305AB
:1016780005713385AC0232472396E70223800704BD
:101688003345950242054181B640264496440649B1
:10169800F259625AD25A425BB25B225C925C025D9A
:1016A800F24D61618280B1E3B77489097D899384C1
:1016B8000480B3C4A4029167938707E8BE94A16726
:1016C800938707D0B3C4F402EFA0A11297A7010033
:1016D8009387477FF1BD97A701009387A77D85640E
:1016E80003A9070093848438D9BD130900009544E1
:1016F800F9B53E8B19BF3385AA40131C0501135C4D
:101708000C41A9B70965130505713305AC028DBFF6
:1017180063FEAA003305754133053503A9473344F1
:10172800750363C8870013150401B1BF3385AB4047
:10173800E5B76285EFA00142CA85EFA08112EFA04C
:10174800413B131D0501135D0D413307AB414207B2
:1017580041838565BA876363B700D287C207C183AF
:10176800639A670193071B00634480019307FBFF9B
:10177800C207C183FD1D93FDFD0F5AC6E28CE39A93
:101788000DF6239DF18445B70145FDBD41112A831E
:10179800014E930E407E130F0019930F400663ED20
:1017A8006E0A9308001913034006B3781503854E93
:1017B8000D4FA14F337365020D891335150063E78B
:1017C800BE0C1308F6FF79467298420813580801B0
:1017D8003307C70213D61700BE0732976146B3F620
:1017E800C60213068070B386C6023697A166F58FC7
:1017F80042075D8FB717004083C6F70293F60608C5
:10180800A307D1000346F10083C6F70293F6060842
:10181800E394C6FE8346F10093F6F60FF1DE9306D5
:1018280070052380D704930680FA2380D7040F100D
:10183800000023AA070383C6170393E60608A388B4
:10184800D702D8DB03C7170313670704A388E70287
:1018580023800704410182807D133368E3039308E2
:10186800E016630E08003368F3039308D016630884
:1018780008009378330093B818009388D816330873
:101888001E01131E0801135E0E0111BF6393E503C9
:101898000548638608000148630303002A88710825
:1018A8007298FD15131E0801C205135E0E01C18151
:1018B80039B713F8150063F4BF007908D5B71338A2
:1018C8001800E5BF914763EEB70217A70100130799
:1018D800E75F8A05BA959C41BA978287B717004097
:1018E80003A7470D1345F5FF698F23AAE70C03A744
:1018F800070D698F23A8E70C03A7070C798D23A090
:10190800A70C8280B717004083A6470D1347F5FF41
:10191800F98E23AAD70C83A6070D558D23A8A70CEB
:1019280083A6070C758F23A0E70C8280B7170040A9
:1019380003A7470D498F23AAE70C03A7070D1345F3
:10194800F5FF45BFB717004083A6470D1347F5FFBE
:10195800758F23AAE70C03A7070C598D4DB7B71746
:10196800004003A7470D498FEDB7B7F700E0C8431C
:101978009C478280938781869C43411106C691C308
:1019880082979387C1869C4391C38297173700201B
:10199800035767359307C01263F7E70403D54180FF
:1019A8009306B01263E4A6049386418603A3060057
:1019B80063070300B2401305C01241010283050703
:1019C800098F3385A740E5473305F5024207418370
:1019D80009839307F7FF3E953345E5021375F50F25
:1019E800B2404101828013054006DDBF0145CDBFED
:1019F80003A84500411126C206C622C48347180021
:101A080003480800A944A207B3E70701C2070D6805
:101A1800C187130828906396070385473284EF50DF
:101A2800D022AA8419ED938701869C4399CB03455C
:101A38001400034704002205598D133515000505C8
:101A48008297B240224426859244410182802D45E6
:101A58002DEFD841411122C426C206C6834717007C
:101A680003470700B684A207D98F0D67930697A18D
:101A78003284639CD702FD3D9737002083C78726B1
:101A88006376F50097370020238EA7248547239097
:101A9800F4009737002083C7E7242300F4000145AA
:101AA800B24022449244410182801307879029451D
:101AB800E398E7FECC4589472390F4000946228540
:101AC80097200020E7806044D9BF82808347450083
:101AD800858BBDC7011122CC2A8403552500938527
:101AE800C1A506CEEF503011058939C5035524002C
:101AF800014781460546ED45EF50204A2AC60DCDDF
:101B0800973700209387C7EB83D7A70201462C009D
:101B18002314F10085472315F1009737002083C768
:101B2800671C2300F50003552400EF60C06709C552
:101B3800ED452800EF50405EF24062440561828026
:101B48008280416541119385C1A57D1506C6EF7058
:101B5800A056B24097360020938686EB41469545BD
:101B6800173500201305C5E541016F70204923A0F2
:101B7800A1868280411122C406C6854709446313A1
:101B8800F502834706000144238EF18417370020AD
:101B9800034747156378F70017050000130545F359
:101BA800EF90F0042285B240224441018280411125
:101BB80006C6C9339737002083C7C712637CF50070
:101BC800973700202380A71217050000130545F05A
:101BD800EF90F001B24001454101828041677917D9
:101BE800630CE502411122C406C685472A84639A1C
:101BF800F50022852244B2409385C1A541016F704A
:101C0800A04B89476396F5008545EF90C07875D15C
:101C1800B2402244410182808280CC41411106C6F3
:101C2800328503C6150083C5050022064D8E42067F
:101C38008D654186138875A2630C060F6348C80436
:101C4800138845A26306060B634AC800938535A22C
:101C58006309B60623900600294679A0138855A281
:101C68006308060B938565A2E316B6FEC1451D46BB
:101C780063ECE5064546198E63F3C7003E8623905C
:101C8800C60097A501009385A52689A8138895A263
:101C98006300060F634E060B1388A5A2630A060F9E
:101CA800938505A5E318B6FA99451D4663EEE50246
:101CB800198E63F3C7003E862390C6009385018181
:101CC80031A89D451D4663E1E5022146198E63F35F
:101CD800C7003E862390C60093850187BA95972052
:101CE8000020E78080220146B2403285410182808F
:101CF800AD451D46E3EAE5FE3146198E63F3C7009C
:101D08003E862390C60097A5010093852522F9B742
:101D1800B1451D46E3EAE5FC3546198E63F3C70075
:101D28003E862390C60097A50100938525217DB79F
:101D3800C1451D46E3EAE5FA4546198E63F3C70037
:101D48003E862390C60097A501009385A51B79B709
:101D5800C1451D46E3EAE5F84546198E63F3C70019
:101D68003E862390C60097A501009385251EBDB722
:101D7800C1451D46E3EAE5F64546198E63F3C700FB
:101D88003E862390C60097A501009385E518B9B74C
:101D9800B5451D46E3EAE5F43946198E63F3C700F5
:101DA8003E862390C60097A50100938565133DB72D
:101DB80097360020938686D94146CD4517350020B1
:101DC8001305C5C56F70802305E1B28741112E86C2
:101DD80013850187BE8506C697200020E780E0129C
:101DE800B240014541018280094582803337E000D5
:101DF8001305A700828083A84500411126C206C6A4
:101E080022C483C7180083C80800B284A207B3E7B6
:101E180017018D6893882890638B17053A8E2D6774
:101E28001307F7BC2944639EE7022D44631B0E0287
:101E3800854735446397F602D84583470600230053
:101E4800F70009476389E7000D476386E700130435
:101E580000086398D7009387C1879C430D450144C8
:101E680082972285B240224492444101828003A88D
:101E7800C5009387C1A60144E315F8FE8547EF50D6
:101E8800C05C2A8479FD03C5140003C70400938746
:101E9800C1872205598D9C43133515000505829786
:101EA800C9B7411122C42A8441659385C1A67D150D
:101EB800058806C6EF70402005C02244B240973618
:101EC8000020938666CD41469145173500201305BD
:101ED800A5C841016F708012B240224401454101FA
:101EE800828023AEA1868280411122C42E849385EC
:101EF800C1A626C206C6AA84EF50E04F058915C1BF
:101F080097370020938747C583D7A702A285B24099
:101F18002310F400224426859244014641016F6053
:101F28008028B24022449244494541018280416759
:101F38007917630CE502411122C406C685472A8435
:101F4800639AF50022852244B2409385C1A64101D7
:101F58006F70801689476396F5008545EF90A0431A
:101F680075D1B2402244410182808280797122D4A5
:101F780026D24AD04ECE52CC56CA06D61379F50090
:101F88001384C1A7854493891188138A0188914ACB
:101F9800631009022254B25092540259F249624A1B
:101FA800D24A03C521880146854545616F1020172F
:101FB800B3779900A9C783470A0003C7090023001C
:101FC8000400E58FD98FA380F1882312D400230160
:101FD800C400A300B40099E12300540136C632C4FA
:101FE8002EC2EF10A00083470400B2462246924555
:101FF80093E7270008C42300F400334999008604B6
:1020080093F4F40F310469B79377150013870188A7
:1020180085CB8547B7160040639EF50083A7860CDD
:1020280093F7F7F723A4F60C834707005D8D238009
:10203800A188828083A7860C93E7070823A4F60C5F
:10204800E5F5834707001345F5FF7D8DCDB70111F1
:1020580022CC26CA4AC84EC652C406CEAE8993744C
:10206800F5001389C1A70544214A89E8F240624472
:10207800D2444249B249224A05618280B3F78400BA
:1020880089CFCE85639649018345090093C515001C
:1020980022852300B900A18C853F06041374F40F30
:1020A8003109E1B7AA8711C909CA81CA930730065D
:1020B80063E3C70065BD854559BF81453E85EDBFD2
:1020C800A14763EFB70297A60100938666E91397C5
:1020D800250036971C43411106C6B697828793069A
:1020E800803E154685457D3FB240014541018280CD
:1020F8009306803E154693052003F5B7893FEDB753
:1021080001458280371700408327070C411106C616
:1021180093E707082320F70C81453D450D3F856669
:10212800938606FA7946A94505458935B24023863E
:1021380001AA4101828083C7C1AA639307167971F6
:102148004ECEC16922D426D24AD052CC56CA5AC8D9
:102158005EC662C406D666C26AC01384C1A7014CB3
:102168003D498544138A1188930A4006FD19130BCB
:102178004006930BF00FB3F72401E1C7834704002F
:10218800898BD5CFEF0090661C442A8D6366F50EC7
:1021980083460400834C240093F71600BDCB330715
:1021A8009B41F99A81452685937CF70F2300D4003B
:1021B800A13D034604009377460099EF8346140037
:1021C800638C7601FD1693F6F60FA300D40089E61A
:1021D800134626002300C40083470400898BB1C33B
:1021E80003574400330797033357570393170701DF
:1021F800337737016A97C18318C463030C08A1C3F6
:102208003E876373FC006287131C0701135C0C0193
:102218003DA093E61600854526852300D400ED33BE
:1022280065BF83450A002685E58DB335B000493D75
:1022380003470A0093C7F4FFF98FA380F18833C9D5
:102248002401860493F4F40F3104E31609F2630BB6
:102258000C022254B25092540259F249624AD24AAC
:10226800424BB24B924C024D6286224C03C52188E8
:10227800854545616F00B06A898FC207C183B5BFC4
:102288003E8C75BFB250225492540259F249624AA8
:10229800D24A424BB24B224C924C024D456182804D
:1022A8008280411106C6EFF00F81BD4763F4A70095
:1022B800EFF06F80EFF02FA9BD4763F4A700EFF0B0
:1022C8008FA8B24083D5A18503D5818541016F10C0
:1022D800000D411193962500AA852D4506C6972025
:1022E8000020E780C08CB240014541018280411145
:1022F80026C29394250022C44AC02A843289A6861D
:10230800AA850146254506C697200020E780208A31
:10231800A6864A86A285294597200020E78020893D
:10232800B240224492440249014541018280011190
:1023380022CC06CE3714004026CA4AC84EC652C41C
:1023480083447405034AB405834984050349940505
:10235800EFE0FFF38347A40593F4F40F137AFA0F21
:1023680093E71700230DF40493F9F90F1379F90F84
:10237800B717004003C7A705058B6DFF03D5C70531
:10238800A38D4705238C3705A38C2705A38B9704BA
:10239800F2406244D2444249B249224A05618280ED
:1023A80041119397050122C406C6C1872E8463DABA
:1023B8000700EF00F00419C1EF00E07D2165218DD1
:1023C80039A093F7150081CBBD3313451400B240F3
:1023D8002244410182809397250163D00702EF20B0
:1023E800010BC13537F60200130606E0896503C5FF
:1023F8002188EF00D0520965D9B793971501014597
:10240800E3D707FC13060064916503C52188EF0034
:10241800105111656DB71D71494697A50100938547
:1024280065B617A50100130525CE86CEEF00303618
:1024380011E101A037F700E0F9575CC7FD571CCB45
:102448008566B7E700E023A0D7101306701010C305
:10245800B8434146B0C323A0D718B8C30F10000033
:102468001306C00381454808EF00502C9737002019
:10247800938747B23ECA896793870780231CF10078
:10248800ED47A301F1029307A0102312F102D147EF
:102498002303F102A167938707E03ECE9707000068
:1024A800938767E3BEC497070000938787E4BEC697
:1024B80085472304F102B5472308F10297F7FFFF88
:1024C8009387E74A3EDAB7F5070097070000938736
:1024D80047E63EDE8146970700009387C7DC700019
:1024E800E1051945BEC097100020E780406C5808E8
:1024F8008147994670003E96034606008507050702
:10250800A30AC700E398D7FED24791C703578101B2
:1025180085676373F70001A04808EF00D07D11C1FB
:1025280001A0F640256182804111170500001305BE
:1025380065E706C622C4EF0090781384218823003B
:10254800A4003128C136034504002244B24037F6BE
:102558000200130606E0896541016F00503C4111F5
:1025680022C406C637140040930670052300D4041D
:10257800130780FA2300E4040F1000008347F402D5
:1025880093F7A70FA307F4022300D4042300E4045D
:102598000F1000008347F40293E72700A307F40213
:1025A80009331305407E230004048147014781460F
:1025B80005468545EFF08F9D2244B2400145410113
:1025C8006F108020011122CC26CA4AC84EC652C4B8
:1025D80056C206CE937AF5079D4437140040216908
:1025E80091697D5A8327C40C0545B3E72701232643
:1025F800F40C97100020E780A04AB3D79A40858B47
:10260800D5CF8327840CB3E737012324F40C29455D
:1026180097100020E780C0488327840C2945FD14C3
:10262800B3E727012324F40C97100020E7804047E4
:10263800E39A44FB85451165EFF0CFA81305800C9C
:1026480097100020E780C0451D490144B714004099
:10265800A169854A7D5A83A7C40C2945B3E7370188
:1026680023A6F40C97100020E780804383A7840CEE
:102678001545B3E7370123A4F40C97100020E78031
:10268800204283A7440C1397170163570700B39799
:102698002A015D8C1374F40F29457D1997100020C9
:1026A800E7800040E31949FB2285F2406244D244A6
:1026B8004249B249224A924A056182808327C40C62
:1026C800B3E737012326F40C99B741118D451165FD
:1026D80006C6EFF02F9F8D452165EFF0AF9EB71727
:1026E800004003A7870C9166558F23A4E70C03A726
:1026F800870CA166558F23A4E70C1305803E97101D
:102708000020E780C03AD5BF011122CC06CE114780
:102718002A846318E50203C725009547631DF7005F
:1027280083D7A50013060064A14503C5418A2394F5
:10273800F188EF00D01E23A68188F240624405612B
:1027480082809387C1889C436395E70675668547B1
:102758001306064CC14503C5418A2304F1002388AA
:102768000188EF00D01B894503C5418AEF00D031AD
:10277800854503D58188EFF08FFB854503D5818892
:10278800EFF0CFC5930500020D45EF2070059305C6
:1027980000021145EF20D0049D659385055301453E
:1027A800EF2010043000854513055030EF603103E9
:1027B80059B709476390E7048D47631DF50283C73E
:1027C800118981C7A3880188BDB7EF200038930716
:1027D8000002E312F5F68547930500640D452304CE
:1027E800F100EF20E07F930500641145EF20407F62
:1027F800814575B78547E310F4F42C001305403084
:10280800EF6021708347D1003000A145A307F10094
:102818008347C1000145230601002307F1008347D0
:10282800B100A3050100A306F100EFF0EFD921B72D
:1028380085476310F5029387C188984391476312CF
:10284800F7021966130606DC914503C5418A6F0035
:10285800100D89476317F500914503C5418A6F003C
:10286800B0228280411106C685476308F500894772
:10287800630BF502B240410182802388A188C145DB
:1028880003C5418AEF0050209387C1889843914738
:10289800E312F7FEB24003C5418A13064006894594
:1028A80041016F00D0077566C1451306064C03C584
:1028B800418A23880188EF009006B24003C5418A07
:1028C800894541016F00501C01119397050122CCE5
:1028D80006CE26CA4AC8C1872E8463DF070003C50F
:1028E800418A392E11C1452C2165218DF24062445F
:1028F800D24442490561828093F7150091CF17268B
:1029080000201306662C9385418903C5418AEF6030
:10291800E14013451400D9BF93F72500ADC793874D
:10292800C18898439147631DF704014781460946CA
:10293800ED4503D58188EF40406623A0A18AAA848B
:102948001389C1891DC50145B5392380A400832792
:1029580049008504CA859D8C93F4F40F03D58188BA
:10296800239F9188EFF04FD809C5ED454A85EF4080
:10297800A07A13064006894503C5418AEF00207AEC
:1029880013452400A5B793F7450085C79387C188E9
:1029980098439147631CF700EFF06FA1196613067F
:1029A80006DC914503C5418AEF0060771345440072
:1029B80035BF93F7850099CF83C7418A130740062F
:1029C80081462146A14503D58188EF60812E1345B4
:1029D800840029BF93F705010145E38907F083C700
:1029E800018985EF894503C5418AEF00F0099145C2
:1029F80003C5418AEF0050091306F1008545130508
:102A08005030A3070100EF60815D3717004083272E
:102A1800C70A93E707202326F70A13450401F9B5E7
:102A2800011117050000130565EA06CE22CC26CA57
:102A38001384418AEF00B02885442300A400700065
:102A480085451305503023069100EF60415917263C
:102A5800002013062618C14513057030EF60215871
:102A68001726002013060614A54513056030EF60ED
:102A78000157700091451305704023049100A30588
:102A8800910002C6A304010023050100EF50015282
:102A98003000854513050040EF5041511306910061
:102AA800854513051040EF5061501306A100854578
:102AB80013052040EF50814F1306B10085451305DB
:102AC8005040EF50A14E99477000854505452306B3
:102AD800F100EFF02F8A7D55EF40A0157D55EF608E
:102AE800805A7D55EFF0EFBBEFF08FACEFF06F85BC
:102AF800172600201306C60BD5450145EF40800573
:102B080017050000130545D6EFF0AFBD1705000007
:102B1800130545D2EFF0AF85034504008545E92943
:102B28000345040075661306064CC145CD2BF240DB
:102B38006244D2440561828041111305800406C6AF
:102B480097100020E78020DC8D450565EFE09FD7D2
:102B5800371700408327870C8566D58F2324F70C09
:102B6800EFF07F8BEFF05F9CEF60E16D553DB13E7C
:102B780097100020E78080F723AC05FE1C4191E701
:102B8800010001000CC18280BA8703A787FF6DFF8F
:102B980023ACB7FE82801DC18346E5FF1307F00F03
:102BA8009147639EE600411106C697200020E78002
:102BB80000D7B24081473E854101828095473E85D6
:102BC800828001E9014582800145B24022444101E9
:102BD8008280411122C42A84210542059305D0042C
:102BE800418106C697200020E780C0C971DDFD57E6
:102BF80023200500231285002303F5002105F1B7E2
:102C08001387818A1C43411122C426C24AC006C6C2
:102C180001440149BA8489E7A165BD250DC401A80D
:102C280003C7E7FF6318A7021DC8A165F1269840EE
:102C3800832784FF6317E40223A4F18AFD57232C1A
:102C480004FE230FF4FE2285B24022449244024936
:102C58004101828011E03E8983A787FF6DBF3E84D2
:102C6800E5BF232CF9FED9BFA9C9411122C406C664
:102C78002A849747002083C7B7B52E856368F40078
:102C8800193F0D45B24022444101828083A785FF48
:102C980099E703C7E5FF9307F00F6305F700E53DE4
:102CA8001545CDB7238F85FE1385818AF135228599
:102CB8002244B240A165410181A61545828023A422
:102CC800018A82809387018C9C4399E33E858280A8
:102CD80003D727006316B70003C70700E308A7FE5A
:102CE800DC47E5B74111939705014AC006C622C4DF
:102CF80026C2C1872E8963DE0700193711C1613DDD
:102D080021653345A900B240224492440249410159
:102D18008280AA860145E5D901443D47B3578940D9
:102D2800858B95CB9387418B8443BD4791E281473F
:102D3800A2978E070545BE94331585001314050127
:102D48009C40C8404180829723A0040023A204002D
:102D5800334524014DBF0504E312E4FC0144CDBF13
:102D680097470020938707A39C53411122C406C6A6
:102D78001384C18195C7829723AEA1800840B747C5
:102D880003009387D73F3305F502B7A7260093873B
:102D980037ECB24022443E9523AEA18041018280A7
:102DA800974700209387C7A218409C4BBA9723AE39
:102DB800F180E9B79387C18A90439746002083C67C
:102DC80036A1814713F7F70F6360D70A174700202A
:102DD800034777B4914763E0E70A9747002083C722
:102DE80027B8918BC9EB0111680006CE22CC26CA00
:102DF800EFC0602FFD56630FD50C32479747002070
:102E080083C7779A63F3E70C174700201307479C9B
:102E1800404717470020034727996305D406058BC9
:102E280021CF51473304E40263F1870A9710002049
:102E3800E780C032B2476373F400A28717470020C7
:102E480003477796998F3E959747002093878794F5
:102E58008387470163CD0702B707C0A86369F502F6
:102E6800B70740573E9525A0850713971700329757
:102E78000357E7FF21DB8280130790023304E40243
:102E880005805DB762076187635707001D8D19E9E3
:102E98003705C0A801A8E37BF5FE3707C0A8B3072C
:102EA800F7403E95974700209387C78EDC5382975B
:102EB80009ED974700209387A7A59C4F99C7EF1066
:102EC800A112EF10A170EF108106F2406244D244C3
:102ED80005618280974700209387878FDC47E386C8
:102EE800A7FE174700201307E78A83464701BA84DD
:102EF800858A9DC65144338487029747002083C73B
:102F0800978AE3F487FC97100020E78020259747ED
:102F1800002083C757891D8C2295838744011DBFD4
:102F280013049002338487020580C1BF2A9609E5FD
:102F380082800505A30FB5FEE31DC5FED5BF8147F9
:102F48003307F5000307070019E33E8582808507EC
:102F5800C5BF01112E8626CAAA841315060193053A
:102F6800F004418122CC06CE32C697200020E780AB
:102F780060912A8419C53246A68597100020E780FB
:102F8800C0F82285F2406244D244056182808147BC
:102F98006314F600054582803307F5008507B3867C
:102FA800F5000347070083C6F6FFE383E6FE014505
:102FB80082809307F6FFBE952A966313C500828028
:102FC800FD1583C715000505A30FF5FEFDB781475D
:102FD80011E9014582803307F50003470700E31A2A
:102FE800B7FE8507E319F6FE05458280973700206E
:102FF8009387077E884B82809737002083C7577D49
:10300800637FF5001387C18A9317150008433E951F
:1030180083570500DD8D2310B500014582800D45DD
:103028008280FD570111173700202329F77A9387EB
:10303800018C22CC80434EC697390020938989752C
:1030480026CA4AC852C456C206CE5AC02A898144E2
:103058004E8A973A0020938AAA7718448147637466
:10306800E900B307274103A749021CC409CB03A7FA
:10307800CA0063F6E700173700202321F776A1E797
:10308800835524009DE95C44A1E823A0F18C032B1F
:10309800C400228597200020E78060885A8455FC68
:1030A80083274A0285CF6244F240D2444249B2495A
:1030B800224A924A024B0561F5B9034504002D3FA7
:1030C8005C4081CB1CC483572400D5DFA2844044D4
:1030D800F9B71C44CDDBC5BFDCC455BFF240624420
:1030E800D2444249B249224A924A024B056182803F
:1030F8009737002083C7D76D6371F5021387C18A9C
:1031080093171500084393C5F5FF3E9583570500AF
:10311800FD8D2310B500014582800D4582809737CB
:10312800002083C7F76A6364F50001458280411176
:1031380022C426C24AC006C62A842E89B2845936B9
:1031480001C504C505452DA0936504F0C205C181DC
:10315800414597100020E780E0720DE19737002085
:10316800938747639C5B81C7A28511458297014578
:10317800B240224492440249410182809387018CE3
:103188009C438DE323A0A18C85472326050004C515
:103198002311250123008500A300F5002322050043
:1031A80055B7BA87D84775FFC8C7F9BF45C539713C
:1031B8005AD0138B418B22DC26DA4AD84ED652D409
:1031C8005ECE66CA6AC86EC606DE56D262CC36893C
:1031D800328AAE89AA8401445A8DB94D854BF94C7F
:1031E80003270B00131C3400937AF40F62971C43D7
:1031F800A9EF13B5FA0013451500B3978B0063F6D2
:103208005D01930714FFB397FB0093950701C181F4
:10321800528631371DC983270D000145E29784C3C3
:1032280023A237016304090023005901F2506254B4
:10323800D2544259B259225A925A025BF24B624C0A
:10324800D24C424DB24D216182800504E31A94F9B3
:103258002145E9BF09458280411122C426C24AC0DE
:1032680006C6AA842E8932845D3DCA852685EFF07C
:103278007FA509C940C10145B24022449244024990
:10328800410182802145CDBF411122C426C24AC0D6
:1032980006C6AA842E89EFF0FFA22A8419C1231139
:1032A80005009737002083C7A75263949700239C93
:1032B800218BCA8526852D3D014511E01945B2406F
:1032C800224492440249410182807547636BA704F6
:1032D8001387418B1443411126C293143500A696D7
:1032E800944222C406C6AA873A84094595C613B5EE
:1032F800F7003947134515006373F700C51785456F
:10330800B395F500C205C18141371C400145A69718
:1033180023A0070023A20700B2402244924441019F
:10332800828009458280411106C6EFF0BF9909C520
:103338000845B240410182800145E5BFF54763ED8C
:10334800A7049387418B9C4313173500BA9798437A
:10335800894721C7011126CA06CE9334F50022CC2D
:10336800B94793C4140063F3A70045150544331403
:10337800A400420441802EC62685A2856D37894760
:10338800324609C5A2852685593B8147F2406244E9
:10339800D2443E850561828089473E858280239894
:1033A800A18A2399B18A8280411106C623AEA18AD7
:1033B8000295B2409737002023A6A7420145410154
:1033C8008280994763E9B7008A0597370020938779
:1033D8006742BE9588C18280411106C6EF50B16D23
:1033E80071468145173500201305C54081361306FF
:1033F80040028145173500201305853D053E23A071
:10340800018C23AE018A9737002083C7673A13D50A
:1034180027008D8B3E958D473305F50293051010D7
:1034280035051375F50F973700202384A73A994778
:103438003305F5021305050F97100020E780804437
:1034480023AAA18A35C9994717360020034666384A
:103458003306F60281451306060FEFF03FAD93875A
:10346800418B9C439387070F23A2F18C17370020C9
:10347800034727360A07BA9723A6F18AEFF03F8455
:1034880055269387418C98439737002083C7573434
:1034980093962700BA96170600001306E68490C292
:1034A80093862700850793F7F70F8A07973500203B
:1034B800A380D532BA9790C3B24041018280973732
:1034C800002083C7F730173700200347873063F1A0
:1034D800E7021387418C184393861700173600209C
:1034E800A308D62E93962700369708C33E85828078
:1034F8009307F00FE5BF1C416381071A41777D8F61
:10350800B70600208947631BD71803574500630790
:103518000718411122C419462A849305F00F59054A
:1035280006C6EFF0DFAA05478D476303E5161C447E
:1035380081CB58589947630D0714185C630A071420
:103548001306C0038145173500201305A524EFF0A5
:10355800FF9D1306C003A285173500201305852398
:1035680097100020E780609A9737002083D7472379
:10357800973600209386062299E79307001017379D
:103588000020231FF7209737002083C7872191E762
:103598008547173700202306F7209737002083C771
:1035A800572091E7ED4717370020A30CF71E9737F0
:1035B800002083C7271F91E795471737002023036B
:1035C800F71E9737002083C7F71D91E78547173700
:1035D8000020A309F71C9737002083C7F71C99E739
:1035E80083C7060117370020A300F71C9737002070
:1035F80083C7671B91E7D147173700202305F71AC0
:103608009737002083C7E71A95E717370020034745
:10361800A7191316870161869307C002634806003D
:103628009377170093B717009387D70217370020AF
:103638002301F7189737002083C7F71695E7173740
:103648000020034767161316870161869307C00297
:10365800634806009377170093B717009387D7023C
:1036680017370020A301F7148347D40191E789474E
:1036780017370020A30EF7129C5691C782979737E9
:103688000020239AA714893BFD57A386F1A28147FE
:10369800B24022443E854101828089473E8582802E
:1036A800011122CC06CE2A842EC6EFF06FEBB2456C
:1036B800F240818D33A5A502229562441375F50F5A
:1036C80005618280011122CC06CE2A842EC6EFF035
:1036D8002FE9B245F240818D33A5A50222956244B7
:1036E8004205418105618280011122CC06CE2A84DF
:1036F8002EC6EFF0EFE6B245F240818D33B5A50254
:103708002295624405618280973700209387870855
:10371800985725C3411122C426C206C6BE84029703
:10372800173700200357270B2A8441C7BA876373CA
:10373800A700AA87C207C183BA866373E400A2867A
:10374800C206C182958F51476355F706DC5491C371
:1037580082978547173700202300F71CEF00315365
:103768009737002023998706B240224492444101AA
:1037780082809737002083C7271A9DE79737002054
:103788009387071983C79700850793F7F70F1737AC
:103798000020A303F718A18B9DC785471737002082
:1037A800231CF7166F00915497370020A38607163D
:1037B800D5BF9737002083C72716DDD72244B240EC
:1037C80092444101C5B7828097370020938787FCD0
:1037D800D857011122CC06CE3E8401C72AC60297CB
:1037E800324509CD23A4A18C17150020130585980F
:1037F800653EF240624401450561828083074401C9
:1038080063DD07009737002023A007FE97170020E5
:103818009387E79023A4F18CC1BF97170020938763
:10382800E793CDBF011122CC17340020130484F68E
:10383800084406CE26CA4AC801E90545F240624452
:10384800D2444249056182805C58E5DB185C75D733
:103858007000854582971844B247E300F7FE930548
:10386800E004173500200355A5F397100020E780E2
:10387800600117370020232BA7F661D117360020E7
:10388800035606F29305F00FEFF04FEA814417391B
:1038980000201309E9F39737002083C787F0032630
:1038A800C90163C1F402328597100020E780200720
:1038B80001459737002023AB07F29737002023A94B
:1038C80007F2ADBF9735002083D585EDB387950204
:1038D8000844185C898185043E9508C2029765BF33
:1038E800411122C4173400201304C4EA1C4426C220
:1038F80006C64AC097340020938484ED91EBC84CE7
:1039080035E9B2402244924402490145410182808E
:103918001C5CF5D7DC4C99EF9305E00417350020C3
:10392800035505E897100020E780C0F59737002079
:1039380023AEA7EAC84C61D517360020035646E6E1
:103948009305F00FEFF08FDE01499737002083C70A
:1039580047E5D04CE355F9FA9735002083D545E47F
:10396800338525031C44898105093E951C5C08C2E2
:103978008297E1BF97100020E78060FA9737002010
:1039880023A607E69737002023A407E69DBF011169
:1039980056C2973A0020938AEADF83A78A0022CC8E
:1039A8004AC84EC606CE26CA52C45AC0AA892E8410
:1039B80032896385072203A74A03630707147D47F3
:1039C8006366A71497340020938484E003AAC40193
:1039D80063170A0A9565938515E017350020035586
:1039E80025DC97100020E780E0E99737002023AF17
:1039F800A7DE2A86630A051083A74A0303A58A005F
:103A08009735002083D5C5D98981829783A78A00F5
:103A180003AAC40117370020232CF7DC8947639CCD
:103A2800F908C1476312F40E9735002083D545D7AE
:103A3800938505FC9147B3C5F5028A05D29503C75E
:103A480005009307A005631DF70A83C7150063994E
:103A5800370B4A852286910597000020E780E04AC7
:103A6800DC4C5285639347150145F2406244D244C9
:103A78004249B249224A924A024B056182809850D3
:103A8800E38EE7F89565938525E017350020035503
:103A980025D197100020E780E0DE2A8A35C52A86DE
:103AA80083A74A0303A58A009735002083D545CF0D
:103AB80089818297A5B78D47639DF900C147631532
:103AC800F4049735002083D5A5CD938545FDF1995C
:103AD800B5B79147639AF900631834039735002006
:103AE80083D505CCA115E5B7C147639FF900A14768
:103AF80063EC87009735002083D585CAC115C1BFFF
:103B0800DC4C52856397470D294585B71307F006A6
:103B1800568B6361A70A130A05FE1947334AEA025E
:103B2800173700200357C7C7973A0020938A4ACA15
:103B3800330AEA023E9A83A70A026395470183A4DF
:103B4800CA019DE49305E00417350020035545C5D7
:103B580097100020E78000D3AA845DD583274B0304
:103B68009735002083D5C5C32A86898152858297D7
:103B780091451307A005898193972500A69783C6C9
:103B880007006393E60483C61700639C3603850524
:103B98008A052286A6954A8597000020E780E036A8
:103BA80083A7CA01E38297EC268597100020E78057
:103BB80000D75DBD1307E007E368A7F4130A05F90A
:103BC80085B783D5270045BF83A7CA01E38E97F23F
:103BD800268597100020E78080D43DB797370020CE
:103BE800938707BFCC4F8DD191479306A005898352
:103BF800139727002E9703460700E317D6F00346CE
:103C08001700631C360185078A072286BE954A85F8
:103C180097000020E780602F81BD83572700C1BF30
:103C280097370020938707B7984739C79C5FA9C77C
:103C380005476313E504411122C417340020130417
:103C480024B9504C06C60DC608509735002083D5B8
:103C580025B589818297484C97100020E78020CCB1
:103C68009737002023A407B89737002023A207B866
:103C7800B24022444101828082800111173700201E
:103C8800130747B14EC68329870022CC26CA4AC8E3
:103C980006CE52C456C2AA842E843289638A092069
:103CA8001C5FBA8A99EB2945F2406244D2444249E2
:103CB800B249224A924A056182805C5BEDD7FD4792
:103CC80063E9A70E97390020938989B083A7C901B2
:103CD800B1CB03A58A0083A709026395A706894784
:103CE8006393F408C147E310F4FC1735002003552B
:103CF80025AB9147130505FC3345F50293172500BD
:103D080003A5C9012286CA853E959307A00523000D
:103D1800F500A3009500110597000020E780E01E3C
:103D2800014559B79305E00417350020035545A709
:103D380097100020E78000B59737002023A8A7AA8E
:103D480049F995B783A74A0303A6C9019735002007
:103D580083D505A58981829783A78A001737002014
:103D68002328F7A8ADBF8D47639EF400C147E31C25
:103D7800F4F2173500200355A5A2130545FD9377E6
:103D8800C5FFBDBF9147639AF400E31E94F0173551
:103D980000200355E5A02115DDB7C147E395F4F0F0
:103DA800A147E3E287F0173500200355659F4115C9
:103DB800F9B79307F00663EAA706930705FE1947C4
:103DC800B3C7E702173700200357879D173A00202B
:103DD800130A0AA0B387E702BE998327CA01A9CFAD
:103DE80083270A02639A37070325CA0191461308F5
:103DF800A005FD5593D72600C207C1831397270056
:103E08002A9703460700631D0607834817000356D1
:103E1800270063959806B306D64063CF86048507C6
:103E28008A072286CA853E95C5BD9307E007E3EC5D
:103E3800A7E6930705F979B79305E004173500203D
:103E48000355059697100020E780C0A397370020F8
:103E580023AEA79851F581BD83A74A030326CA015B
:103E68009735002083D5C59389814E8582979737EA
:103E7800002023AF37978DBFA300B700B2869DBF40
:103E8800B3858600173600200356869191051306E0
:103E980006FCE3FAC5E0130634001376C60F1106D4
:103EA800B29623000701A30097002311D70085BF0E
:103EB800973700209387C791D44FBE89A1C203A525
:103EC800C90191461308A005FD5593D72600C207DE
:103ED800C183139727002A97034607006316060530
:103EE800834817000356270063989800B306D64006
:103EF800E3D786F2A300B700B286C1BF8357C700D5
:103F0800173500200345E5899305E0043305F502DC
:103F18004205418197100020E780C096973700201E
:103F280023A6A78C49FD41B31736002003564687C0
:103F38009735002083C5E586B385C502338686009C
:103F48001106E3E2C5D681BF01458280011106CE84
:103F58002EC6EF70803301C9B245F24003552500E3
:103F680005616FA04062F240494505618280A38ADD
:103F7800018E238A018E23AE018C23A0018E23A2F9
:103F8800018E23A4018E23AC018C23AA018C9737C0
:103F980000209387E7873707B40098C33747A00006
:103FA800D8C3370710009306070A94C7B70650000E
:103FB800C106D4C7930607054107D8CB3707D007F2
:103FC800410798CF3707840398D337C707001307EB
:103FD80007B8D8D3416794CB93060701130717F89E
:103FE800D8D7370781FF98DB7D5723AE070094D7D2
:103FF800239AE7028280011126CAAA84214522CC8D
:1040080006CE2E8432C636C43AC2EFE09FBB1DC925
:10401800A24612473246930700FD2300F500994750
:10402800A30095002301F5002303D500A303E500B1
:104038002312C500AA8522856244F240D244056154
:104048006FE09FC2F2406244D2440561828023AE91
:10405800A18C828023A0A18E828023A2A18E82803F
:1040680023A4A18E8280011122CC4AC806CE26CA7A
:104078002A890144B30489006368B400F2406244A9
:10408800D2444249056182802EC6EFE07FCD931766
:104098000501C183A183B2452380F400930714006E
:1040A80093F7F70F850463F9B700CA9709042380CB
:1040B800A7001374F40F7DBF3E847DBFC167172529
:1040C80000200355C578FD176302F502411103C6A8
:1040D80001989385C18E06C6EF60707CB240FD578B
:1040E800172700202315F77641018280828009C9AD
:1040F80025151375F50F1335850E134515008280A8
:104108000145828023800500F94763E2C708797179
:1041180022D426D24ECE56CA5AC806D64AD052CC37
:104128005EC63684B289AE8A2A8B814463FF340521
:10413800B307940003CA0700138914001379F90F11
:1041480063050A04B3072A0163C1F904B30724010C
:1041580083CB07005E85613F0DC99307FAFF238073
:10416800FA0063906B03130519002295B25022548C
:1041780092540259F249624AD24A424BB24B4561C3
:104188008280D29493F4F40F55B70145C5B7014521
:104198008280411126C2AE8422C49727002023AF13
:1041A800C76A9727002023A9B76A9727002023A367
:1041B800A76A2A8441469305F00F26854AC006C699
:1041C8000549EFE0DFE0631E25039727002093876A
:1041D800A767884BC145413D41469305F00F2285AD
:1041E800EFE0FFDE854463169502224497270020FE
:1041F80093878765B24092440249C847C145410147
:104208009DB5414681452685EFE07FDCE31625FD17
:104218006DBF414681452285EFE07FDBE30795FCD2
:10422800B24022449244024941018280411122C491
:1042380026C22E84AA841306000281451725002071
:104248001305856006C6EFE07FCE97270020A38E72
:10425800975EA3818198EFA08034854719C1814773
:104268004945B240224417270020230FF75C9244A7
:1042780041018280814781CD19C98547631BF500BB
:1042880083C7550093E707FCA382F50085473E8561
:10429800828089476317F50083C7550093F7F703B2
:1042A800E5B70D478547E314E5FE03C755001377C7
:1042B800F70313670704A382E500D1BF81478DC1C7
:1042C80005C103C755009306000C85471377070CF3
:1042D8006308D700930600048D476303D700894716
:1042E8003E858280411122C4005D06C626C21DC8D3
:1042F800AA84085009C597000020E780406248500A
:1043080009C597000020E7808061085409C5970017
:104318000020E780C060228597000020E7802060A9
:1043280023AC0402B240224492444101828009ED48
:104338009727002083C7675117250020130545528A
:1043480081CB1385C18C8280172500201305455128
:104358008280172500200345454F8280972700203B
:104368009387874EC8478280972700209387C74D39
:10437800884B8280972700209387074DDC4B884322
:104388008280972700209387274CD84B1C438507AA
:104398001CC3172500200345554B9307F00F6305F1
:1043A800F50091656FE05FC58280011122CC06CED1
:1043B8002E8432C6EF60B07C9147B245631FF5008A
:1043C8009387818E9C438DC303A30700630E03006C
:1043D80022856244F240056102839387018E9C43E3
:1043E80081C703A34700DDB7F24062440545056174
:1043F8008280011122CC2A840355450006CE26CAA4
:104408004AC84EC6EF60905835C52A8983440500CE
:104418008349C500C13D4A85EF70F04F03554400FC
:10442800EF60707183C7418FB1CB6399970483C5DF
:10443800518F2685EFF09FB119E1238A018E03552C
:104448004400EF60D0739147631FF50003574400A1
:104458009727002083D7A73F6317F700FD57172733
:1044680000202316F73EF2406244D2444249B24942
:104478000561828081499304F00F6DB79307F00FAF
:10448800E38FF4FA8346640003564400034524008E
:104498004E87A685EFF03FB65DB779715EC6AA8BE9
:1044A8002E8552CC56CA5AC806D622D426D24AD00D
:1044B8004ECEAE8A328B368AEF60504D6DC1045DA8
:1044C8002A89F1CC9C50614599C3130540039C543B
:1044D80081C751054205418163050A0071054205FE
:1044E8004181DC5081C7590542054181EFE06FEDFC
:1044F8002A8455C561468145EFE05FA397290020CE
:1045080083C909346394090083490900930700FDAE
:104518002300F400A947A30074012301F400230336
:1045280064018C50231254011305840191C908C4F5
:104538007146930A440397000020E780009D568542
:104548008C5491C948C45146930A450197000020EC
:10455800E780A09B5685630C0A0008C87146D2857F
:10456800930AC50197000020E780209A5685CC5011
:1045780099C548C8594697000020E7800099A28548
:104588004E85EFE06FEE2254B2509254F249624ADF
:10459800D24A424BB24B4A8502594561A1B3B25047
:1045A800225492540259F249624AD24A424BB24BBF
:1045B8004561828001114EC6AA892E854AC806CE59
:1045C80022CC26CA2E89EF60703C31C59724002082
:1045D80083C4042799E0834405001945EFE06FDEA2
:1045E8002A8415C981451946EFE05F94930700FDB9
:1045F8002300F400B947A30034012301F400231277
:104608002401A2856244F2404249B2492685D24437
:1046180005616FE06FE5F2406244D2444249B24915
:104628000561828039715ECEAA8B2E8526DA4ED638
:1046380052D456D25AD006DE22DC4AD8AE84328B07
:10464800B68A3A8ABE8942C6EF60503431C92A898F
:104658004145EFE00FD72A8421C541468145EFE067
:10466800FF8C172500200345A51D19E10345090006
:10467800930700FD2300F400BD472301F400B2476F
:10468800A30074012312940023046401A3045401B9
:1046980023054401A30534015CC4A285EFE0CFDC07
:1046A800F2506254D2544259B259225A925A025B79
:1046B800F24B21618280797126D2AA8439454AD089
:1046C8004ECE06D622D42EC6B2893689EFE06FCFF9
:1046D80021C1B2459307000D2310F500B1472A8484
:1046E8002312B5002301F500CE8519051946970058
:1046F8000020E780808123062401A2852254B2503D
:104708000259F24913F5F40F925445616FE0CFD581
:10471800B250225492540259F249456182801727B7
:104728000020034797129307F00F630DF706411116
:1047380026C2AA84394522C406C64AC0EFE06FC81B
:104748002A8439C9930700FD2300F500A3009500CA
:104758002301050097250020938585100D0519462E
:1047680097F0FF1FE780607A172900201309C90D09
:1047780083578900A285172500200345150D2315A9
:10478800F400834719002306F4002244B2409244FF
:10479800024941016FE04FCDB240224492440249A0
:1047A800410182808280011156C2AA8A314526CAF7
:1047B8004AC84EC652C406CE22CCAE84328AB689C6
:1047C8003A89EFE00FC029C92A842685EF60101CBA
:1047D8001DCD03450500930700FD2300F4009D4708
:1047E800A30054012301F40023129400231344016D
:1047F8002314340123152401A2856244F240D244D3
:104808004249B249224A924A05616FE0EFC517252D
:10481800002003459503C1B7F2406244D24442499F
:10482800B249224A924A05618280397162CC2A8C47
:10483800594526DA4AD84ED652D456D25AD05ECEE8
:1048480006DE22DCAE8432C636C4BA8B3E8BC28A00
:10485800468A8359010403494104EFE08FB635C500
:104868003246930700FDA2462300F5009547A301B1
:10487800C500A30085012301F5002A841946110506
:10488800A9C2B68597F0FF1FE78020682306640158
:10489800230A240123157401231754012318440102
:1048A80023193401A2856254F2504259B259225A4E
:1048B800925A025BF24B624C2685D25421616FE01A
:1048C800AFBA8145EFE08FE6D1B7F2506254D254C7
:1048D8004259B259225A925A025BF24B624C2161F8
:1048E80082809727002083C747F68DCB4111AA8580
:1048F80019461385C18C06C697F0FF1FE780E06054
:104908009385C18C17250020034525F4EFF09F9669
:10491800B2401385C18C41016F90F04801458280F7
:1049280017270020034777F29307F00F6305F7086E
:10493800411126C2AA84294522C406C6EFE06FA801
:104948002A8429C1930700FD2300F500A14723010C
:10495800F500A3009500972700209387E7EE83C70B
:1049680027009385C18C1105A30FF5FE194697F012
:10497800FF1FE7808059A285172500200345F5EC25
:10498800EFE08FAE17270020034727EC8D47631F02
:10499800F7009387418E9C4391CB03A3870063075D
:1049A80003002244B240924441010283B2402244AF
:1049B80092444101828017270020034707E98D4769
:1049C800631AF7009387418E9C4389C703A3870026
:1049D800E31D03FC8280797122D406D626D24AD000
:1049E8004ECE52CC094445C92A89035505002E8A62
:1049F8005144EF60A079AA8459CD83C73198FD1737
:104A080093F7F70F054749446377F7080347C5004D
:104A1800A1476314F70063100A089C5C4544A5EF9E
:104A28009165938545711305C00297000020E780C2
:104A380060E588DCAA894D4439CD1306C00281455A
:104A4800EFE0CFCE8357090093864900368523913E
:104A5800F90071469305490036C697F0FF1FE780B5
:104A6800C04A89472380F90003C5C400B2460356EB
:104A78000900611583C5019813351500EF90C0072B
:104A88002A8463060A00D2852685EF70F01301C4D4
:104A98002685EFF03F852285B25022549254025960
:104AA800F249624A4561828083C73198FD1793F7BE
:104AB800F70F05476378F708894751C6011122CCDB
:104AC80026CA4AC84EC652C406CEAA89368AB284B5
:104AD8002E89EF60A06B2A84D14729C9485509C59A
:104AE80097000020E780A0E3F1452685EFE06FC638
:104AF80048D4CD4705CD8346C40021478147639FED
:104B0800E600630D0A000347A50103560501930655
:104B18002501AA854E85EF700003AA870347440044
:104B2800630F0900136767002302E400F240624440
:104B3800D2444249B249224A3E85056182801367C0
:104B48004700DDB7C9473E858280E54763EBA7008C
:104B5800972700209387C7CB06053E950355050088
:104B6800828041657D158280011122CC2A842E85A0
:104B780026CA06CEAE84EF6060610DCDB7470F0040
:104B88009387F723094563E2870281450A854146F1
:104B9800EFE0CFB9A685231081000A854180230163
:104BA8008100A3010100EF809057F2406244D24493
:104BB800056182804945D5BFA380A19882806F8016
:104BC800706C797152CC2A8A328522D426D24AD086
:104BD8004ECE56CA5AC85EC606D662C4AE8BB28AD4
:104BE800368BBA843E89C2894684EF60205A15C93B
:104BF8002A8C63140A0213774B008347450015CFAC
:104C080093E727012302FC008DEC631C0902639AD9
:104C1800090205E8ED9B2302FC00832B8C03639FAC
:104C28000B06B250225492540259F249624AD24AAF
:104C3800424BB24B224C45618280F59B93E70701BA
:104C4800D1B793E747002302FC0001CC1C4841463A
:104C5800A2852324FC0213058C0197F0FF1FE7802F
:104C6800C02A63910B02D5D80325CC0209C5970049
:104C78000020E780C0CAF1452685EFE08FAD2326E6
:104C8800AC0261BFE30B09F80325CC0209C5970004
:104C98000020E780C0C8F1454A85C5B79DC483A7F1
:104CA8000B0299EB9165938535717145970000204A
:104CB800E78040BD23A0AB0203A50B0219C57146CE
:104CC800A68597F0FF1FE78040246388090283A721
:104CD8004B0299EB91659385257159459700002002
:104CE800E78040BA23A2AB0203A54B0219C5594677
:104CF800CE8597F0FF1FE78040211DC483A78B0254
:104D080099EB916593851571514597000020E780CF
:104D180060B723A4AB0203A58B0219C55146A2852F
:104D280097F0FF1FE780601E2254B2509254F24958
:104D3800B24B224CCA865A860259424BD6855285B6
:104D4800D24A624A45616FF04FF5011126CA52C432
:104D580006CE22CC4AC84EC62A8AAE84EF600043EB
:104D680025C5AA893945EFD0DFE52A8431CD172931
:104D780000200349E9AC6314090003C9090093073B
:104D8800000D2310F400AD472301F400938569005A
:104D980013053400194697F0FF1FE780001793F7B3
:104DA8001400858085882306F400A3069400231543
:104DB8004401A2856244F240D244B249224A4A855B
:104DC800424905616FD05FEAF2406244D2444249E9
:104DD800B249224A056182809387418D884301CD7B
:104DE800411106C697000020E78060B3B24023AAAD
:104DF800018C410182808280011106CE22CC26CA14
:104E08004AC82EC6EF60803839CDB2451729002030
:104E1800034909A3AA840CD56314090003490500B2
:104E28004145EFD01FDA2A841DCD9307000D2310CA
:104E3800F500A5472301F50083C754009385640056
:104E48001105A30FF5FE194697F0FF1FE780E00B49
:104E58009C54A285F2405CC46244D2444A854249CB
:104E680005616FD07FE0F2406244D2444249056157
:104E78008280797122D406D62A842EC6EF6000314A
:104E88000DCD8346C5001147AA8749456393E602BD
:104E98009C5FB24599C383C567010808EF70C05B82
:104EA80097860000938646E4100889452285EF60BE
:104EB800504EB2502254456182805145DDBF83C7B0
:104EC8003198FD1793F7F70F0547637AF704894779
:104ED80021CA411122C426C24AC006C6B2842E89FC
:104EE800EF60C02A2A84D14705C5630809008347B3
:104EF800450093E727002302F5004146A6851305E0
:104F0800840197F0FF1FE78040009C481CD481472C
:104F1800B2402244924402493E8541018280C947F9
:104F28003E858280797122D406D62A842EC6EF6007
:104F3800E02501CDB2452285230EB1006C08EF7043
:104F48002045B2502254456182805145DDBF6F60D3
:104F5800C038C1671387E7FF6394E5029387018E22
:104F68009C4391EB494582804945B2402244924492
:104F780002494101828003A30700E30503FE02837F
:104F8800411122C426C24AC006C6FD172A892E84AA
:104F9800B2846395F5029387018E9C4391CB9C4321
:104FA80081CB829711E5238A218FA38A918E75BFC1
:104FB800A6854A85EFE09FF94DF9F5B72E85EF6094
:104FC800E01C5DD1834705000D45E39027FB228552
:104FD8002244B2400249A685924441016F90A05AEA
:104FE80065476362A7044111416722C406C626C209
:104FF8007D172A8409456383E502C547AE84631596
:10500800F4002E85EF90A05F93171400172400205A
:1050180013040480A297239097000145B2402244CC
:1050280092444101828009458280011106CE2AC638
:10503800EFE0FFF3EF108003EF00E075EF3031622F
:1050480032459727002093872780130700F0239184
:10505800E700238207007D5793870198A380E70024
:105068002380A700F240954505616F40F02D1D7122
:1050780093970501CAC886CEA2CCA6CACEC6D2C40A
:10508800D6C2DAC05EDE62DC66DA6AD8C1872E89EB
:1050980063D0074C03C50198EFD09FB68964416A75
:1050A800856A797B2A84938BD4007D1AA50A691BAB
:1050B80015E021653345A900F6406644D6444649C3
:1050C800B649264A964A064BF25B625CD25C425D60
:1050D80025618280834704001307200A639DE70047
:1050E80003552400171C0020034C3C762286D285E9
:1050F800EFF0AFAB3DAA1307100903CC11986397E3
:10510800E716834714001547639EE7002285EFF0F2
:105118004FAE2285EFD03FA803C50198EFD05FAE10
:105128002A8479B739476399E71603554400631B06
:1051380055050C4483C90500639D0900850591C97F
:105148001946171500201305A57197F0FF1FE78072
:10515800C0DB171700200347276F85476318F71030
:10516800638A0900971700202380076E4E85EFF0A9
:105178000FDB45B78947171700202307F76CEF9017
:10518800404241BF93872400631AF50683298400AF
:10519800638E090C83C709008DE383C7290003C701
:1051A8001900A207D98F171700202313F76A83C79E
:1051B800390017170020A309F768171700200347BD
:1051C800A76889476314F70A83C7090081CB971733
:1051D8000020238B076603C5090051BF8D4797152B
:1051E800002083C5756617150020035565661717D7
:1051F8000020230BF764EF403018F1BF9387540069
:105208006318F5001C4403C50700EFF06FF111B7F0
:10521800B3076501C207C1831147636FF70093871E
:10522800418E9C43E38707EE9C43E38407EE228587
:105238008297E31005EE1DA89387B400631FF5005D
:105248009387C18D9C43E38607EC9C43E38307EC7B
:10525800A2851385B4008297E9BF9387C4006310C1
:10526800F5021C4483C70700E38507EA9307F00F9C
:10527800E301FCEAA2856285EFD01F9F71BD938789
:10528800E400E315F5FE9387018E9C43E38307E86A
:10529800DC43A285E9F3B5BD3D476397E7040355B1
:1052A8004400E30275FF93879401E30EF5FC9387AE
:1052B8003401E31DF5FA9717002083D74759639EF9
:1052C80047019387018E9C43E38507E4DC43E3822F
:1052D80007E4A28513853401BDBF9387818E9C4363
:1052E800E38907E29C43E5B71307E003E390E7F897
:1052F8008347240005476396E70E83476400138DB0
:10530800418DF1E383270D00D5CB03CC0700A149DC
:1053180003457400930C8400E685EFE03FFA834769
:105328004401A303A400835804010358E40003576D
:1053380044002A86034534003EC283572401E6868A
:10534800E2853EC0CE87EFF04FCE8347340095E725
:10535800DD47835804010358E400834674008355ED
:1053680044003EC283572401668705463EC06285D5
:10537800CE87EF604016A301A40083270D0081C7E4
:105388001145EFF07FA503C5418FE30405D883C518
:10539800518FEFE0BFBBE30E05D683463400930779
:1053A8001003638AF600035644004E8783C5418F75
:1053B8003685EFE05FC4238A018EA1BB171C00204D
:1053C800034CBC48A9B79387418E9C43171C002007
:1053D800034CBC4791498DDFDC439DDB0145829737
:1053E80005BF29476390E70C83476400938C418D80
:1053F800C1E783A70C00A5CF03CC0700A14903454B
:1054080074009306840093772500C9C713761500A6
:10541800130D4401834704028358C4010358A401AF
:1054280003574400034534003EC28357E401E28534
:105438003EC0CE87EFF06FBF8347340095E7DD4766
:105448008358C4010358A40183467400835544005B
:105458003EC28357E4016A8705463EC06285CE870F
:10546800EF606007A301A40083A70C0009BF171C05
:105478000020034C9C3D59B79387418E9C43171CD1
:105488000020034C9C3C9149BDDBDC43ADDB01456E
:105498008297B5B7B68536CEEFE05FE2F2462A8648
:1054A800368D8DBF0947639DE7009387C18D9C4367
:1054B800E38107C6DC43E38E07C42285829791B94E
:1054C8002D476399E7009387C18D9C43E38307C405
:1054D8009C47D5B70D476397E70022868D4503554E
:1054E800440039B11947E393E7D8930561021305DE
:1054F8001031EF3011212C1013052031EF307120BD
:1055080003566400835781020355440063E8C700CB
:10551800835684000357610263F7E600930500028F
:10552800EF90E00CFDB66374E6002313E40063F427
:10553800D7002314F4000357C4008356A40003566D
:1055480084008355640001488147EF90000AD1B672
:1055580093F7150081CF9387C18D9C4389C7DC439E
:1055680099C30145829713451900B9B693F72500E9
:1055780081CF9387418E9C4389C7DC4399C30545F6
:105588008297134529000DBE93F745000145E38531
:1055980007B29387818D9C4391CF854717170020C9
:1055A8002306F72A9387418E9C4389C7DC4399C316
:1055B800054582979717002093870729C8472C101D
:1055C800EF80001F2810EFF0CFB19717002083D786
:1055D800472691CB130600643386C702914503C55D
:1055E8000198EFD0DFB313454900F9B4411122C443
:1055F8002A84554506C6EFF04FD5B335A00022855D
:105608002244B24041016F80507B797122D406D682
:105618008D472E84631FF50003D7A50083D6850028
:1056280003D665000345340083D54500EFF0AF97F6
:1056380009A889671387D7006310E50403C5250007
:1056480019E58547B25022543E854561828093878B
:10565800418D9443FDD603C6360083C506008148B4
:1056680002C202C00148814701479106EFF0EF9B53
:105678000545EFF06FF6F1B71387E700E303E5FCA4
:1056880013873701631AE50003C525005DD9014773
:1056980081460146814559BFE507E304F5FA4167AC
:1056A8007D178147E310E5FA03C75500C947E31A98
:1056B800F7F883D6E50003D6C5000355840083D5E3
:1056C800A500EF80507441C95D45EFF00FC8333530
:1056D800A000231CA1008345440003552400300882
:1056E800EF50501D83578101A9FF6C081305103135
:1056F800EF3031019305E10113052031EF307100DE
:105708008357C101035784006374F7002314F4001E
:105718008357E1010357A40063F4E7002315F4005D
:10572800835784000357A4006374F7002315F4001B
:1057380003552400EFB060170357E4008356C400F4
:105748000356A4008355840003552400014881476B
:10575800EF80B067FDB58547231CF100ADBFC16779
:105768001387E7FF639DE5009387418D9C4395C3AD
:1057780083C707000D47639CA7006F805064FD171F
:1057880049476396F5009387418D9C43FDF73A8519
:1057980082804947EDBF2380019023A4019023A272
:1057A8000190971700209387270C1707000013070D
:1057B800874798C3170700001307A74AD8C31707D6
:1057C80000001307075B98C79387818F17070000AE
:1057D800130727F998C317070000130747E3D8C32F
:1057E8008280797122D406D626D24AD04ECE52CCA7
:1057F80056CA5AC80347050085472A84630AF7042E
:1058080003468500930695009305F1000545EFE0F2
:105818007F8F814719C183470500834604001147DC
:105828006380E6041387419018438D4603471700A9
:105838006308D70295C70DC719ED0145B250225428
:1058480092540259F249624AD24A424B45618280D7
:1058580081470145D9B785466318D7028D8BF1DF9B
:1058680003451400130A2400D285EFE03FA5A300E6
:10587800A4001389819083270900AA8A8149930487
:10588800F00F99EB05455DBF8946E318D7FA858B7C
:10589800F9B7850993F9F90F83C7019063FBF902FA
:1058A80003250900139B49005A9583470500E382A5
:1058B80097FE83471500E39E57FD1946D2850905D3
:1058C800EFD0EFEC79D58324090003470400DA947C
:1058D80085EC834604009147E381F6F683270900A7
:1058E800A9DF03C6019001479305F00FE307E6F42B
:1058F800BE84C10703C507FF630CB50A0507137704
:10590800F70FEDB788C4E5A09147631AF706C844B6
:1059180005C583478400034605006304F60603476C
:1059280004009147631BF706C84419C597F0FF1F89
:10593800E780E0FE23A60400034584009165938573
:10594800E571050597F0FF1FE780C0F305C503471C
:1059580004009147631CF704C8C483478400930577
:1059680094000505A30FF5FE0346840097E0FF1F8A
:10597800E780A059034584003335A000C1B58844A9
:1059880041BF930594000505EFD06FE08547E31804
:10599800F5F85545EFF06F9BBDA8884451DD97F0A9
:1059A800FF1FE780C0F723A4040079B788C475B740
:1059B8002380D40083471400D28513852400A38054
:1059C800F400194697E0FF1FE78020540345840040
:1059D80091659385F571050597F0FF1FE78080EACB
:1059E80005C5034704009147E31EF7F0C8C4834781
:1059F8008400930594000505A30FF5FE0346840073
:105A080097E0FF1FE780605083478400E39C07E628
:105A1800034504007D15133515000DB5011122CC81
:105A2800138481901C4006CE26CA4AC84EC652C46A
:105A380099CF2E8AAA840149084063129902630CFF
:105A48000A0497F0FF1FE78080ED23A40190F2403D
:105A58006244D2444249B249224A0561828093197C
:105A68004900B3073501884709C997F0FF1FE78048
:105A780000EB1C40CE9723A407001C40CE97C847D4
:105A880009C997F0FF1FE78080E91C40BE9923A64B
:105A98000900050955B745DD139644008145EFD047
:105AA800EFC8144081477D5613F7F70FE37197FA53
:105AB8001397470036972300C7008507F5B70111EC
:105AC80052C4138A419083270A0006CE22CC26CAE4
