:040000006F00406AE3
:1000040000000000000000006F0080086F00402026
:1000140000000000000000000000000000000000DC
:1000240000000000000000000000000000000000CC
:100034006F004006000000006F00E00500000000B3
:100044006F0080056F0060056F0040056F0020059C
:100054006F0000056F00E0046F00C00400000000A2
:100064006F0060046F0040046F0020046F00000400
:100074006F00C0216F00C003000000006F00600328
:100084006F0040036F0020036F0000036F00E00265
:1000940001A001A001A001A001A001A001A001A054
:1000A40001A001A001A001A001A001A001A001A044
:1000B40001A001A001A001A001A001A0B717004068
:1000C400930670052380D704130780FA2380E7047E
:1000D4000F10000003C6B7041376F60DA385C704FA
:1000E40023800704137605023DCA03C6A700118ABC
:1000F4001DE22380D7042380E7040F10000003C708
:10010400A700136747002385E7009307004B01000E
:100114000100FD17EDFFB71700409306700523801B
:10012400D704130780FA2380E7040F1000007D89A9
:100134002394A700010001000100010023800704AB
:100144002380D7042380E7040F10000037270040E2
:1001540093061005A303D7802380070482801376B7
:1001640005046DDE03C6A700418A1DE22380D7047F
:100174002380E7040F10000003C7A70013670701DB
:100184002385E7009307007D01000100FD17EDFFC3
:10019400B7170040930670052380D704130780FA2D
:1001A4002380E7040F1000007D8913650504239460
:1001B400A70001000100010001002380070423803F
:1001C400D7042380E7040F1000003727004093066C
:1001D400300549B74111814601468145114506C69E
:1001E4004122B7170040130770052380E704130763
:1001F40080FA2380E7040F10000003C76704136725
:1002040017002383E70423800704B240410182805E
:100214008146014681451145A122B7170040930646
:1002240070052380D704130780FA2380E7040F1096
:1002340000007D562396C7022380D7042380E70459
:100244000F10000003C76704136717002383E70434
:100254002380070401A0BD473305F50201007D1585
:1002640075FD8280411122C426C206C6AA840144B7
:1002740063179400B24022449244410182800504F1
:100284001305803E4204C13F4180DDB7B7170040EB
:10029400130700032388E702854717070000232379
:1002A400F756730020302303048095472303F4801A
:1002B4002302A480828083076480E3CE07FE2303A5
:1002C4000480828083076480E3CE07FE0345448074
:1002D400828083076480E3CE07FE2302A4808280A9
:1002E400411126C44AC24EC006C61377F50BAD476A
:1002F400AA892E8995446306F70019456D37653F31
:100304008D444E854D37FD59FD1463983401B24038
:10031400A24412498249410182801355090113758F
:10032400F50F453F2209CDB7011126CC06CEB704FF
:10033400080051371545853F713769372AC6A53FEF
:1003440032459377150089EB136515001375F50F86
:10035400F240E24405618280FD14E9FC0145CDBF11
:10036400397126DC4ADA4ED852D656D45AD25ED0E7
:1003740062CEB7E700E006DE66CC6ACA414783ABCB
:10038400070422C6B8C37D5703AB070083AA4700FE
:1003940023A0E71823A2E718B71700401307700536
:1003A4002380E704130780FA2380E70483C7470404
:1003B400130C75FFB684E207137CFC0F85462A8A6A
:1003C4002E89B28937240040E187015763FA8601F8
:1003D4006308D5008946130700026313D50001574B
:1003E400D98F93F7F70F371D00402302FD041147FF
:1003F4002303E4801305F00F7D35894C6D3D63EBD9
:100404008C11B70707003E99378707007955637E3B
:10041400E902B3079900636AF702A947631CFA0665
:1004240089E48144493D26850DA0CA8509454D3D91
:10043400850903C5F9FFFD140509613D81C493775E
:10044400F90FFDF7D53569FD7D55B7170040130742
:1004540070052380E704130780FA2380E70403C7A9
:100464004704418B2382E704B7E700E023A0770524
:10047400F25023A0671123A25711E2543244525977
:10048400C259325AA25A125B825B724CE24C524DF0
:1004940021618280A5476314FA0685699307F00FEA
:1004A400B3869700B374F900B69493C7F7FFFD8C35
:1004B40033F92701416A056C9387F9FFB3F72701E4
:1004C40099E363FC340193D94900C147E3E637FF5C
:1004D40089BF8567C169FD17E1B71305800D63887E
:1004E4004901130500026384890113051008CA85B4
:1004F400C53B1D3D31D94E99B3843441D9B7CA8522
:100504002D45F93BCE94E38E99F08509653BA38F85
:10051400A9FED5BF9307FAFF93F7F70F63ECFC0826
:1005240003475D04B70708001377070219E3B78789
:1005340007007955E37BF9F033079900E3E7E7F027
:1005440089476310FA048980554AE38C04ECCA8510
:1005540009457933910903A7C9FF91472320E48012
:1005640003076480E34E07FE23034481FD17EDFB7C
:10057400FD14110981C49377F90FE9FF753371F5FF
:10058400E1B58547E307FAF4CA852D45913B138904
:10059400F4FFE38804E83D339377390091EB832635
:1005A400048003A7090093874900E39DE6E6BE891A
:1005B400CA84F1BFB5476316FA001305900BE53101
:1005C4008DB5B1471305B00AE30BFAFE9947631ED4
:1005D400FA02CA852D45293381440D4C214ADD3167
:1005E400639684018327048023A0F9008504E3989B
:1005F40044FF8327048013172901635507002392BE
:10060400F90005B523A2F90029BD9D476319FA0233
:1006140081451305B004E931BD4423A0090023A298
:1006240009007D59453193F77400CE9703C707003D
:10063400FD14398D2380A700E39624FFDDB3A14781
:100644006312FA04D5318144630D09008D47930484
:10065400C0036308F900930400056304990193043B
:1006640040041375C507E30E95DA19452D39A131F8
:10067400054515392685B1390945A1397531E31286
:1006840005DAD9B391476319FA00130560062139D5
:100694001D311305900925B7E3050AD8F15459B360
:1006A400974100209381C1151781002013014195C2
:1006B40013054000973500209385851417360020D4
:1006C4001306067E63FAC5008322050023A05500A5
:1006D40011059105E3EAC5FE1305007E9745002048
:1006E40093850592174600201306869163FAC50088
:1006F4008322050023A0550011059105E3EAC5FEF8
:10070400174500201305C58F974500209385858FD5
:100714006377B500232005001105E36DB5FE930250
:10072400800873A00230973200209382620D93E216
:10073400120073905230371700409307700523005E
:10074400F704930780FA2300F7040F1000003C47D6
:10075400B70600FAE116F58FB70600069506D58FA1
:100764003CC7970200009382020173901234730015
:10077400203041111305800406C622C426C24AC093
:1007840097300020E780801313054006973000203F
:10079400E780402D371700408327070C37140040AB
:1007A4009304C40C93E707082320F70C13090008EB
:1007B40023A024011305401F97300020E780802ADE
:1007C4008327840C1305401F93E707082324F40CA4
:0C07D40097300020E7800029E1BF000002
:00000001FF
